{
  "address": "0x9fE46736679d2D9a65F0992F2272dE9f3c7fa6e0",
  "abi": [
    {
      "inputs": [
        {
          "internalType": "address",
          "name": "_medicsBookAddress",
          "type": "address"
        }
      ],
      "stateMutability": "nonpayable",
      "type": "constructor"
    },
    {
      "anonymous": false,
      "inputs": [
        {
          "indexed": true,
          "internalType": "address",
          "name": "owner",
          "type": "address"
        },
        {
          "indexed": true,
          "internalType": "address",
          "name": "approved",
          "type": "address"
        },
        {
          "indexed": true,
          "internalType": "uint256",
          "name": "tokenId",
          "type": "uint256"
        }
      ],
      "name": "Approval",
      "type": "event"
    },
    {
      "anonymous": false,
      "inputs": [
        {
          "indexed": true,
          "internalType": "address",
          "name": "owner",
          "type": "address"
        },
        {
          "indexed": true,
          "internalType": "address",
          "name": "operator",
          "type": "address"
        },
        {
          "indexed": false,
          "internalType": "bool",
          "name": "approved",
          "type": "bool"
        }
      ],
      "name": "ApprovalForAll",
      "type": "event"
    },
    {
      "anonymous": false,
      "inputs": [
        {
          "indexed": true,
          "internalType": "address",
          "name": "hospitalAddr",
          "type": "address"
        },
        {
          "indexed": true,
          "internalType": "bytes32",
          "name": "sku",
          "type": "bytes32"
        },
        {
          "indexed": false,
          "internalType": "uint16",
          "name": "quantity",
          "type": "uint16"
        }
      ],
      "name": "BoughtMedicine",
      "type": "event"
    },
    {
      "anonymous": false,
      "inputs": [
        {
          "indexed": true,
          "internalType": "address",
          "name": "hospitalAddr",
          "type": "address"
        },
        {
          "indexed": true,
          "internalType": "bytes32",
          "name": "sku",
          "type": "bytes32"
        },
        {
          "indexed": false,
          "internalType": "string",
          "name": "name",
          "type": "string"
        }
      ],
      "name": "EmptyMedicine",
      "type": "event"
    },
    {
      "anonymous": false,
      "inputs": [
        {
          "indexed": true,
          "internalType": "address",
          "name": "hospitalAddr",
          "type": "address"
        },
        {
          "indexed": false,
          "internalType": "uint256",
          "name": "prescriptionId",
          "type": "uint256"
        }
      ],
      "name": "ExpiredPrescription",
      "type": "event"
    },
    {
      "anonymous": false,
      "inputs": [
        {
          "indexed": true,
          "internalType": "address",
          "name": "hospitalAddr",
          "type": "address"
        },
        {
          "indexed": false,
          "internalType": "string",
          "name": "reason",
          "type": "string"
        }
      ],
      "name": "HopitalRemoved",
      "type": "event"
    },
    {
      "anonymous": false,
      "inputs": [
        {
          "indexed": false,
          "internalType": "uint8",
          "name": "version",
          "type": "uint8"
        }
      ],
      "name": "Initialized",
      "type": "event"
    },
    {
      "anonymous": false,
      "inputs": [
        {
          "indexed": true,
          "internalType": "address",
          "name": "hospitalAddr",
          "type": "address"
        },
        {
          "indexed": true,
          "internalType": "address",
          "name": "medicAddr",
          "type": "address"
        },
        {
          "indexed": false,
          "internalType": "string",
          "name": "name",
          "type": "string"
        },
        {
          "indexed": false,
          "internalType": "string",
          "name": "url",
          "type": "string"
        }
      ],
      "name": "MedicAdded",
      "type": "event"
    },
    {
      "anonymous": false,
      "inputs": [
        {
          "indexed": true,
          "internalType": "address",
          "name": "hospitalAddr",
          "type": "address"
        },
        {
          "indexed": true,
          "internalType": "address",
          "name": "medicAddr",
          "type": "address"
        }
      ],
      "name": "MedicRemoved",
      "type": "event"
    },
    {
      "anonymous": false,
      "inputs": [
        {
          "indexed": true,
          "internalType": "address",
          "name": "hospitalAddr",
          "type": "address"
        },
        {
          "indexed": false,
          "internalType": "string",
          "name": "name",
          "type": "string"
        },
        {
          "indexed": false,
          "internalType": "string",
          "name": "url",
          "type": "string"
        }
      ],
      "name": "NewHospital",
      "type": "event"
    },
    {
      "anonymous": false,
      "inputs": [
        {
          "indexed": true,
          "internalType": "address",
          "name": "hospitalAddr",
          "type": "address"
        },
        {
          "indexed": true,
          "internalType": "bytes32",
          "name": "sku",
          "type": "bytes32"
        },
        {
          "indexed": false,
          "internalType": "string",
          "name": "name",
          "type": "string"
        },
        {
          "indexed": false,
          "internalType": "uint16",
          "name": "price",
          "type": "uint16"
        }
      ],
      "name": "NewMedicine",
      "type": "event"
    },
    {
      "anonymous": false,
      "inputs": [
        {
          "indexed": true,
          "internalType": "address",
          "name": "hospitalAddr",
          "type": "address"
        },
        {
          "indexed": true,
          "internalType": "address",
          "name": "medicAddr",
          "type": "address"
        },
        {
          "indexed": true,
          "internalType": "address",
          "name": "patientAddr",
          "type": "address"
        },
        {
          "indexed": false,
          "internalType": "uint256",
          "name": "prescriptionId",
          "type": "uint256"
        }
      ],
      "name": "NewPrescription",
      "type": "event"
    },
    {
      "anonymous": false,
      "inputs": [
        {
          "indexed": true,
          "internalType": "address",
          "name": "previousOwner",
          "type": "address"
        },
        {
          "indexed": true,
          "internalType": "address",
          "name": "newOwner",
          "type": "address"
        }
      ],
      "name": "OwnershipTransferred",
      "type": "event"
    },
    {
      "anonymous": false,
      "inputs": [
        {
          "indexed": false,
          "internalType": "address",
          "name": "account",
          "type": "address"
        }
      ],
      "name": "Paused",
      "type": "event"
    },
    {
      "anonymous": false,
      "inputs": [
        {
          "indexed": true,
          "internalType": "address",
          "name": "hospitalAddr",
          "type": "address"
        },
        {
          "indexed": false,
          "internalType": "uint256",
          "name": "prescriptionId",
          "type": "uint256"
        }
      ],
      "name": "PrescriptionFilled",
      "type": "event"
    },
    {
      "anonymous": false,
      "inputs": [
        {
          "indexed": true,
          "internalType": "address",
          "name": "hospitalAddr",
          "type": "address"
        },
        {
          "indexed": true,
          "internalType": "bytes32",
          "name": "sku",
          "type": "bytes32"
        },
        {
          "indexed": false,
          "internalType": "uint16",
          "name": "quantity",
          "type": "uint16"
        }
      ],
      "name": "SoldMedicine",
      "type": "event"
    },
    {
      "anonymous": false,
      "inputs": [
        {
          "indexed": true,
          "internalType": "address",
          "name": "from",
          "type": "address"
        },
        {
          "indexed": true,
          "internalType": "address",
          "name": "to",
          "type": "address"
        },
        {
          "indexed": true,
          "internalType": "uint256",
          "name": "tokenId",
          "type": "uint256"
        }
      ],
      "name": "Transfer",
      "type": "event"
    },
    {
      "anonymous": false,
      "inputs": [
        {
          "indexed": false,
          "internalType": "address",
          "name": "account",
          "type": "address"
        }
      ],
      "name": "Unpaused",
      "type": "event"
    },
    {
      "inputs": [],
      "name": "MAX_IDLE",
      "outputs": [
        {
          "internalType": "uint256",
          "name": "",
          "type": "uint256"
        }
      ],
      "stateMutability": "view",
      "type": "function"
    },
    {
      "inputs": [
        {
          "internalType": "address",
          "name": "hospitalAddr",
          "type": "address"
        },
        {
          "internalType": "string",
          "name": "_name",
          "type": "string"
        },
        {
          "internalType": "string",
          "name": "_url",
          "type": "string"
        }
      ],
      "name": "addHospital",
      "outputs": [],
      "stateMutability": "nonpayable",
      "type": "function"
    },
    {
      "inputs": [
        {
          "internalType": "address",
          "name": "medicAddr",
          "type": "address"
        }
      ],
      "name": "addMedic",
      "outputs": [],
      "stateMutability": "nonpayable",
      "type": "function"
    },
    {
      "inputs": [
        {
          "internalType": "bytes32[]",
          "name": "skus",
          "type": "bytes32[]"
        },
        {
          "internalType": "uint16[]",
          "name": "quantities",
          "type": "uint16[]"
        }
      ],
      "name": "addMedicines",
      "outputs": [],
      "stateMutability": "nonpayable",
      "type": "function"
    },
    {
      "inputs": [
        {
          "internalType": "address",
          "name": "to",
          "type": "address"
        },
        {
          "internalType": "uint256",
          "name": "tokenId",
          "type": "uint256"
        }
      ],
      "name": "approve",
      "outputs": [],
      "stateMutability": "nonpayable",
      "type": "function"
    },
    {
      "inputs": [
        {
          "internalType": "address",
          "name": "owner",
          "type": "address"
        }
      ],
      "name": "balanceOf",
      "outputs": [
        {
          "internalType": "uint256",
          "name": "",
          "type": "uint256"
        }
      ],
      "stateMutability": "view",
      "type": "function"
    },
    {
      "inputs": [
        {
          "internalType": "address",
          "name": "hospitalAddr",
          "type": "address"
        },
        {
          "internalType": "address",
          "name": "patientAddr",
          "type": "address"
        },
        {
          "internalType": "bytes32[]",
          "name": "skus",
          "type": "bytes32[]"
        },
        {
          "internalType": "uint16[]",
          "name": "quantities",
          "type": "uint16[]"
        }
      ],
      "name": "createPrescription",
      "outputs": [],
      "stateMutability": "nonpayable",
      "type": "function"
    },
    {
      "inputs": [
        {
          "internalType": "uint256",
          "name": "prescriptionId",
          "type": "uint256"
        }
      ],
      "name": "fillPrescription",
      "outputs": [],
      "stateMutability": "nonpayable",
      "type": "function"
    },
    {
      "inputs": [
        {
          "internalType": "uint256",
          "name": "tokenId",
          "type": "uint256"
        }
      ],
      "name": "getApproved",
      "outputs": [
        {
          "internalType": "address",
          "name": "",
          "type": "address"
        }
      ],
      "stateMutability": "view",
      "type": "function"
    },
    {
      "inputs": [
        {
          "internalType": "address",
          "name": "hospitalAddr",
          "type": "address"
        }
      ],
      "name": "getHospital",
      "outputs": [
        {
          "components": [
            {
              "internalType": "address",
              "name": "addr",
              "type": "address"
            },
            {
              "internalType": "string",
              "name": "name",
              "type": "string"
            },
            {
              "internalType": "string",
              "name": "url",
              "type": "string"
            }
          ],
          "internalType": "struct Hospital",
          "name": "",
          "type": "tuple"
        }
      ],
      "stateMutability": "view",
      "type": "function"
    },
    {
      "inputs": [],
      "name": "getHospitalCount",
      "outputs": [
        {
          "internalType": "uint256",
          "name": "",
          "type": "uint256"
        }
      ],
      "stateMutability": "view",
      "type": "function"
    },
    {
      "inputs": [
        {
          "internalType": "uint256",
          "name": "prescriptionId",
          "type": "uint256"
        }
      ],
      "name": "getItemsOfPrescription",
      "outputs": [
        {
          "components": [
            {
              "internalType": "bytes32",
              "name": "sku",
              "type": "bytes32"
            },
            {
              "internalType": "uint16",
              "name": "quantity",
              "type": "uint16"
            }
          ],
          "internalType": "struct ItemPrescription[]",
          "name": "items",
          "type": "tuple[]"
        }
      ],
      "stateMutability": "view",
      "type": "function"
    },
    {
      "inputs": [
        {
          "internalType": "uint256",
          "name": "",
          "type": "uint256"
        }
      ],
      "name": "hospitalsList",
      "outputs": [
        {
          "internalType": "address",
          "name": "",
          "type": "address"
        }
      ],
      "stateMutability": "view",
      "type": "function"
    },
    {
      "inputs": [
        {
          "internalType": "address",
          "name": "medicsBookAddr",
          "type": "address"
        }
      ],
      "name": "initializeMedicineSupply",
      "outputs": [],
      "stateMutability": "nonpayable",
      "type": "function"
    },
    {
      "inputs": [
        {
          "internalType": "address",
          "name": "owner",
          "type": "address"
        },
        {
          "internalType": "address",
          "name": "operator",
          "type": "address"
        }
      ],
      "name": "isApprovedForAll",
      "outputs": [
        {
          "internalType": "bool",
          "name": "",
          "type": "bool"
        }
      ],
      "stateMutability": "view",
      "type": "function"
    },
    {
      "inputs": [
        {
          "internalType": "address",
          "name": "",
          "type": "address"
        },
        {
          "internalType": "bytes32",
          "name": "",
          "type": "bytes32"
        }
      ],
      "name": "medicines",
      "outputs": [
        {
          "internalType": "bytes32",
          "name": "sku",
          "type": "bytes32"
        },
        {
          "internalType": "string",
          "name": "name",
          "type": "string"
        },
        {
          "internalType": "uint16",
          "name": "price",
          "type": "uint16"
        },
        {
          "internalType": "uint16",
          "name": "quantity",
          "type": "uint16"
        }
      ],
      "stateMutability": "view",
      "type": "function"
    },
    {
      "inputs": [],
      "name": "medicsBook",
      "outputs": [
        {
          "internalType": "contract IMedicsBook",
          "name": "",
          "type": "address"
        }
      ],
      "stateMutability": "view",
      "type": "function"
    },
    {
      "inputs": [
        {
          "internalType": "address",
          "name": "",
          "type": "address"
        },
        {
          "internalType": "address",
          "name": "",
          "type": "address"
        }
      ],
      "name": "medicsInHospitals",
      "outputs": [
        {
          "internalType": "bool",
          "name": "",
          "type": "bool"
        }
      ],
      "stateMutability": "view",
      "type": "function"
    },
    {
      "inputs": [],
      "name": "name",
      "outputs": [
        {
          "internalType": "string",
          "name": "",
          "type": "string"
        }
      ],
      "stateMutability": "view",
      "type": "function"
    },
    {
      "inputs": [],
      "name": "owner",
      "outputs": [
        {
          "internalType": "address",
          "name": "",
          "type": "address"
        }
      ],
      "stateMutability": "view",
      "type": "function"
    },
    {
      "inputs": [
        {
          "internalType": "uint256",
          "name": "tokenId",
          "type": "uint256"
        }
      ],
      "name": "ownerOf",
      "outputs": [
        {
          "internalType": "address",
          "name": "",
          "type": "address"
        }
      ],
      "stateMutability": "view",
      "type": "function"
    },
    {
      "inputs": [
        {
          "internalType": "address",
          "name": "",
          "type": "address"
        },
        {
          "internalType": "address",
          "name": "",
          "type": "address"
        },
        {
          "internalType": "address",
          "name": "",
          "type": "address"
        },
        {
          "internalType": "uint256",
          "name": "",
          "type": "uint256"
        }
      ],
      "name": "patientPrescriptions",
      "outputs": [
        {
          "internalType": "uint256",
          "name": "",
          "type": "uint256"
        }
      ],
      "stateMutability": "view",
      "type": "function"
    },
    {
      "inputs": [],
      "name": "paused",
      "outputs": [
        {
          "internalType": "bool",
          "name": "",
          "type": "bool"
        }
      ],
      "stateMutability": "view",
      "type": "function"
    },
    {
      "inputs": [
        {
          "internalType": "uint256",
          "name": "",
          "type": "uint256"
        }
      ],
      "name": "prescriptions",
      "outputs": [
        {
          "internalType": "address",
          "name": "medic",
          "type": "address"
        },
        {
          "internalType": "address",
          "name": "hospital",
          "type": "address"
        },
        {
          "internalType": "address",
          "name": "patient",
          "type": "address"
        },
        {
          "internalType": "bytes1",
          "name": "filledStatus",
          "type": "bytes1"
        },
        {
          "internalType": "uint256",
          "name": "timestamp",
          "type": "uint256"
        }
      ],
      "stateMutability": "view",
      "type": "function"
    },
    {
      "inputs": [],
      "name": "prescriptionsCount",
      "outputs": [
        {
          "internalType": "uint256",
          "name": "",
          "type": "uint256"
        }
      ],
      "stateMutability": "view",
      "type": "function"
    },
    {
      "inputs": [
        {
          "internalType": "bytes32",
          "name": "sku",
          "type": "bytes32"
        },
        {
          "internalType": "string",
          "name": "name",
          "type": "string"
        },
        {
          "internalType": "uint16",
          "name": "price",
          "type": "uint16"
        }
      ],
      "name": "registerMedicine",
      "outputs": [],
      "stateMutability": "nonpayable",
      "type": "function"
    },
    {
      "inputs": [
        {
          "internalType": "address",
          "name": "hospitalAddr",
          "type": "address"
        },
        {
          "internalType": "string",
          "name": "reason",
          "type": "string"
        }
      ],
      "name": "removeHospital",
      "outputs": [],
      "stateMutability": "nonpayable",
      "type": "function"
    },
    {
      "inputs": [
        {
          "internalType": "address",
          "name": "medicAddr",
          "type": "address"
        }
      ],
      "name": "removeMedic",
      "outputs": [],
      "stateMutability": "nonpayable",
      "type": "function"
    },
    {
      "inputs": [],
      "name": "renounceOwnership",
      "outputs": [],
      "stateMutability": "nonpayable",
      "type": "function"
    },
    {
      "inputs": [
        {
          "internalType": "uint256",
          "name": "prescriptionId",
          "type": "uint256"
        }
      ],
      "name": "requestMedicines",
      "outputs": [],
      "stateMutability": "nonpayable",
      "type": "function"
    },
    {
      "inputs": [
        {
          "internalType": "address",
          "name": "from",
          "type": "address"
        },
        {
          "internalType": "address",
          "name": "to",
          "type": "address"
        },
        {
          "internalType": "uint256",
          "name": "tokenId",
          "type": "uint256"
        }
      ],
      "name": "safeTransferFrom",
      "outputs": [],
      "stateMutability": "nonpayable",
      "type": "function"
    },
    {
      "inputs": [
        {
          "internalType": "address",
          "name": "from",
          "type": "address"
        },
        {
          "internalType": "address",
          "name": "to",
          "type": "address"
        },
        {
          "internalType": "uint256",
          "name": "tokenId",
          "type": "uint256"
        },
        {
          "internalType": "bytes",
          "name": "data",
          "type": "bytes"
        }
      ],
      "name": "safeTransferFrom",
      "outputs": [],
      "stateMutability": "nonpayable",
      "type": "function"
    },
    {
      "inputs": [
        {
          "internalType": "address",
          "name": "operator",
          "type": "address"
        },
        {
          "internalType": "bool",
          "name": "approved",
          "type": "bool"
        }
      ],
      "name": "setApprovalForAll",
      "outputs": [],
      "stateMutability": "nonpayable",
      "type": "function"
    },
    {
      "inputs": [
        {
          "internalType": "address",
          "name": "medicsBookAddr",
          "type": "address"
        }
      ],
      "name": "setMedicsBookAddr",
      "outputs": [],
      "stateMutability": "nonpayable",
      "type": "function"
    },
    {
      "inputs": [
        {
          "internalType": "bytes4",
          "name": "interfaceId",
          "type": "bytes4"
        }
      ],
      "name": "supportsInterface",
      "outputs": [
        {
          "internalType": "bool",
          "name": "",
          "type": "bool"
        }
      ],
      "stateMutability": "view",
      "type": "function"
    },
    {
      "inputs": [],
      "name": "symbol",
      "outputs": [
        {
          "internalType": "string",
          "name": "",
          "type": "string"
        }
      ],
      "stateMutability": "view",
      "type": "function"
    },
    {
      "inputs": [
        {
          "internalType": "uint256",
          "name": "tokenId",
          "type": "uint256"
        }
      ],
      "name": "tokenURI",
      "outputs": [
        {
          "internalType": "string",
          "name": "",
          "type": "string"
        }
      ],
      "stateMutability": "view",
      "type": "function"
    },
    {
      "inputs": [
        {
          "internalType": "address",
          "name": "from",
          "type": "address"
        },
        {
          "internalType": "address",
          "name": "to",
          "type": "address"
        },
        {
          "internalType": "uint256",
          "name": "tokenId",
          "type": "uint256"
        }
      ],
      "name": "transferFrom",
      "outputs": [],
      "stateMutability": "nonpayable",
      "type": "function"
    },
    {
      "inputs": [
        {
          "internalType": "address",
          "name": "newOwner",
          "type": "address"
        }
      ],
      "name": "transferOwnership",
      "outputs": [],
      "stateMutability": "nonpayable",
      "type": "function"
    }
  ],
  "transactionHash": "0x9997901f6d237a3b25298f90cb0a213faf03575e87b801f72ef4f6059f592637",
  "args": [
    "0xe7f1725E7734CE288F8367e1Bb143E90bb3F0512"
  ],
  "numDeployments": 1,
  "solcInputHash": "56fc8133a144a8c3429d78b35130f7f5",
  "bytecode": "0x60806040523480156200001157600080fd5b5060405162003acc38038062003acc83398101604081905262000034916200003b565b506200006d565b6000602082840312156200004e57600080fd5b81516001600160a01b03811681146200006657600080fd5b9392505050565b613a4f806200007d6000396000f3fe608060405234801561001057600080fd5b506004361061023d5760003560e01c80638da5cb5b1161013b578063c87b56dd116100b8578063e985e9c51161007c578063e985e9c514610599578063f2fde38b146105d5578063f8d46ba1146105e8578063f9a2a381146105fb578063fe45a81d1461062b57600080fd5b8063c87b56dd1461052d578063ca6d372714610540578063cddc927b14610553578063d5d5fa7714610566578063e74807cc1461058657600080fd5b8063b0397ff8116100ff578063b0397ff8146104c1578063b11db9e4146104d4578063b88d4fde146104e7578063bc9dc1d9146104fa578063c49b09b51461050d57600080fd5b80638da5cb5b1461046f57806395d89b411461048057806399f5642714610488578063a1776e671461049b578063a22cb465146104ae57600080fd5b806342842e0e116101c9578063715018a61161018d578063715018a6146104245780637a8867931461042c5780637b67994f146104365780637d01dbc214610449578063828566fc1461045c57600080fd5b806342842e0e146103cd5780635c975abb146103e05780636352211e146103eb57806369b2aecd146103fe57806370a082311461041157600080fd5b8063095ea7b311610210578063095ea7b3146102cd5780630db7a33e146102e257806323b872dd1461031057806331dfc91b1461032357806339aaa6e8146103b557600080fd5b806301ffc9a71461024257806305001d811461026a57806306fdde031461028d578063081812fc146102a2575b600080fd5b610255610250366004612ce4565b610633565b60405190151581526020015b60405180910390f35b61027d610278366004612d16565b610685565b6040516102619493929190612d9a565b610295610749565b6040516102619190612dcf565b6102b56102b0366004612de2565b6107db565b6040516001600160a01b039091168152602001610261565b6102e06102db366004612d16565b610802565b005b6102556102f0366004612dfb565b60fd60209081526000928352604080842090915290825290205460ff1681565b6102e061031e366004612e34565b61091d565b610372610331366004612de2565b61010260205260009081526040902080546001820154600283015460048401546005909401546001600160a01b0393841694928416939091169160f81b9085565b604080516001600160a01b039687168152948616602086015292909416918301919091526001600160f81b0319166060820152608081019190915260a001610261565b6103bf6101005481565b604051908152602001610261565b6102e06103db366004612e34565b61094e565b60975460ff16610255565b6102b56103f9366004612de2565b610969565b6102e061040c366004612e75565b6109c9565b6103bf61041f366004612e75565b610afc565b6102e0610b82565b6103bf62278d0081565b6102e0610444366004612f76565b610b96565b6102e0610457366004612e75565b610d90565b6102e061046a366004612fcd565b610ebc565b60c9546001600160a01b03166102b5565b610295610f99565b6102e0610496366004612de2565b610fa8565b6102b56104a9366004612de2565b61123a565b6102e06104bc366004613043565b611264565b6102e06104cf366004612e75565b61126f565b6102e06104e2366004612de2565b611431565b6102e06104f5366004613076565b611705565b60ff546102b5906001600160a01b031681565b61052061051b366004612e75565b611737565b60405161026191906130f6565b61029561053b366004612de2565b6118c2565b6103bf61054e36600461314a565b611936565b6102e0610561366004613287565b611982565b610579610574366004612de2565b611e7b565b6040516102619190613304565b6102e0610594366004613357565b611f02565b6102556105a7366004612dfb565b6001600160a01b039182166000908152606a6020908152604080832093909416825291909152205460ff1690565b6102e06105e3366004612e75565b612057565b6102e06105f63660046133bb565b6120d0565b6102e0610609366004612e75565b60ff80546001600160a01b0319166001600160a01b0392909216919091179055565b60fc546103bf565b60006001600160e01b031982166380ac58cd60e01b148061066457506001600160e01b03198216635b5e139f60e01b145b8061067f57506301ffc9a760e01b6001600160e01b03198316145b92915050565b60fe602090815260009283526040808420909152908252902080546001820180549192916106b290613401565b80601f01602080910402602001604051908101604052809291908181526020018280546106de90613401565b801561072b5780601f106107005761010080835404028352916020019161072b565b820191906000526020600020905b81548152906001019060200180831161070e57829003601f168201915b5050506002909301549192505061ffff808216916201000090041684565b60606065805461075890613401565b80601f016020809104026020016040519081016040528092919081815260200182805461078490613401565b80156107d15780601f106107a6576101008083540402835291602001916107d1565b820191906000526020600020905b8154815290600101906020018083116107b457829003601f168201915b5050505050905090565b60006107e6826122d9565b506000908152606960205260409020546001600160a01b031690565b600061080d82610969565b9050806001600160a01b0316836001600160a01b031614156108805760405162461bcd60e51b815260206004820152602160248201527f4552433732313a20617070726f76616c20746f2063757272656e74206f776e656044820152603960f91b60648201526084015b60405180910390fd5b336001600160a01b038216148061089c575061089c81336105a7565b61090e5760405162461bcd60e51b815260206004820152603e60248201527f4552433732313a20617070726f76652063616c6c6572206973206e6f7420746f60448201527f6b656e206f776e6572206e6f7220617070726f76656420666f7220616c6c00006064820152608401610877565b6109188383612338565b505050565b61092733826123a6565b6109435760405162461bcd60e51b81526004016108779061343c565b610918838383612425565b61091883838360405180602001604052806000815250611705565b6000818152606760205260408120546001600160a01b03168061067f5760405162461bcd60e51b8152602060048201526018602482015277115490cdcc8c4e881a5b9d985b1a59081d1bdad95b88125160421b6044820152606401610877565b600054610100900460ff16158080156109e95750600054600160ff909116105b80610a035750303b158015610a03575060005460ff166001145b610a665760405162461bcd60e51b815260206004820152602e60248201527f496e697469616c697a61626c653a20636f6e747261637420697320616c72656160448201526d191e481a5b9a5d1a585b1a5e995960921b6064820152608401610877565b6000805460ff191660011790558015610a89576000805461ff0019166101001790555b610a916125c1565b60ff80546001600160a01b0319166001600160a01b0384161790556000610100558015610af8576000805461ff0019169055604051600181527f7f26b83ff96e1f2b6a682f133852f6798a09c465da95921460cefb38474024989060200160405180910390a15b5050565b60006001600160a01b038216610b665760405162461bcd60e51b815260206004820152602960248201527f4552433732313a2061646472657373207a65726f206973206e6f7420612076616044820152683634b21037bbb732b960b91b6064820152608401610877565b506001600160a01b031660009081526068602052604090205490565b610b8a6125f0565b610b94600061264a565b565b33600081815260fb60205260409020546001600160a01b031614610bcc5760405162461bcd60e51b81526004016108779061348a565b33600081815260fb60205260409020546001600160a01b031614610c2d5760405162461bcd60e51b8152602060048201526018602482015277486f73706974616c20646f6573206e6f742065786973747360401b6044820152606401610877565b33600090815260fe60209081526040808320868452909152902054831415610c975760405162461bcd60e51b815260206004820152601f60248201527f4d65646963696e652077617320616c72656164792072656769737465726564006044820152606401610877565b60405180608001604052808481526020018381526020018261ffff168152602001600061ffff1681525060fe6000610ccc3390565b6001600160a01b0316815260208082019290925260409081016000908120878252835220825181558282015180519192610d0e92600185019290910190612bff565b5060408201516002909101805460609093015161ffff908116620100000263ffffffff1990941692169190911791909117905582610d493390565b6001600160a01b03167f790784cf0db3edec2a229397dc504f4cdfce4984abe1f1ac934563450a5c01a38484604051610d839291906134ce565b60405180910390a3505050565b33600081815260fb60205260409020546001600160a01b031614610dc65760405162461bcd60e51b81526004016108779061348a565b33600081815260fb60205260409020546001600160a01b031614610dfc5760405162461bcd60e51b8152600401610877906134f4565b33600090815260fd602090815260408083206001600160a01b038516845290915290205460ff16610e665760405162461bcd60e51b81526020600482015260146024820152731359591a58c8191bd95cc81b9bdd08195e1a5cdd60621b6044820152606401610877565b33600081815260fd602090815260408083206001600160a01b0386168085529252808320805460ff19169055519092917fb35968fdda9034197de288afbe8a2947dedade83d7dbc0de3e340d4f62ce64dc91a350565b610ec46125f0565b604080516060810182526001600160a01b038581168083526020808401878152848601879052600092835260fb825294909120835181546001600160a01b03191693169290921782559251805192939192610f259260018501920190612bff565b5060408201518051610f41916002840191602090910190612bff565b505060fc80546001810182556000919091527f371f36870d18f32a11fea0f144b021c8b407bb50f8e0267c711123f454b963c00180546001600160a01b0319166001600160a01b039590951694909417909355505050565b60606066805461075890613401565b60008181526101026020526040902060028101546001600160a01b031633146110255760405162461bcd60e51b815260206004820152602960248201527f4f6e6c79207461726765742070617469656e742063616e2072657175657374206044820152686d65646963696e657360b81b6064820152608401610877565b600481015460f81b6001600160f81b031916600160f81b146110895760405162461bcd60e51b815260206004820152601e60248201527f507265736372697074696f6e20616c72656164792072657175657374656400006044820152606401610877565b6003810160005b81548110156111a55760008282815481106110ad576110ad61352b565b60009182526020909120600290910201600181015490915061ffff166111355780546001808601546001600160a01b0316600081815260fe6020908152604080832086845290915290819020905191927fc25dbab8db15573076a68e10f7791bf517e1f359577879b903e5ea34d56748619261112c9290910190613541565b60405180910390a35b6001808501546001600160a01b0316600090815260fe60209081526040808320855484529091529020600201549082015461ffff620100009092048216911611156111925760405162461bcd60e51b8152600401610877906135e9565b508061119d81613641565b915050611090565b506000826005015462278d006111bb919061365c565b9050428111156111d95760048301805460ff19166002179055611234565b60048301805460ff1916600517905560018301546040516001600160a01b03909116907f50c338e4274d24198c33c0c228b9a0091305eacdea40a7e2423afd2688aebe3e9061122b9087815260200190565b60405180910390a25b50505050565b60fc818154811061124a57600080fd5b6000918252602090912001546001600160a01b0316905081565b610af833838361269c565b33600081815260fb60205260409020546001600160a01b0316146112a55760405162461bcd60e51b81526004016108779061348a565b33600081815260fb60205260409020546001600160a01b0316146112db5760405162461bcd60e51b8152600401610877906134f4565b60ff546040516379b28f4f60e01b81526001600160a01b03838116600483015260009216906379b28f4f9060240160006040518083038186803b15801561132157600080fd5b505afa158015611335573d6000803e3d6000fd5b505050506040513d6000823e601f3d908101601f1916820160405261135d91908101906136b9565b9050816001600160a01b031681600001516001600160a01b0316146113bb5760405162461bcd60e51b81526020600482015260146024820152731359591a58c8191bd95cc81b9bdd08195e1a5cdd60621b6044820152606401610877565b33600081815260fd602090815260408083206001600160a01b03871680855290835292819020805460ff19166001179055908401518482015191519293927fd62df3af32c3af5470c71ce8838edebd9516ac5cd2edd07e7b7e8379edb93444926114259291613773565b60405180910390a35050565b33600081815260fb60205260409020546001600160a01b0316146114675760405162461bcd60e51b81526004016108779061348a565b600081815261010260205260409020600101546001600160a01b03163381146114e55760405162461bcd60e51b815260206004820152602a60248201527f4f6e6c792074617267657420686f73706974616c2063616e2066696c6c20707260448201526932b9b1b934b83a34b7b760b11b6064820152608401610877565b6000828152610102602052604090206004015460f81b6001600160f81b031916600160f91b146115675760405162461bcd60e51b815260206004820152602760248201527f507265736372697074696f6e206973206e6f7420696e207265717565737465646044820152662073746174757360c81b6064820152608401610877565b600082815261010260205260408120600301905b815481101561169d5760008282815481106115985761159861352b565b60009182526020909120600290910201600181015490915061ffff1661161b5780546001600160a01b038516600081815260fe602090815260408083208584529091529081902090517fc25dbab8db15573076a68e10f7791bf517e1f359577879b903e5ea34d56748619161161291600190910190613541565b60405180910390a35b6001600160a01b038416600090815260fe6020908152604080832084548452909152902060020154600182015461ffff620100009092048216911611156116745760405162461bcd60e51b8152600401610877906135e9565b8054600182015461168a91869161ffff16612763565b508061169581613641565b91505061157b565b506000838152610102602052604090819020600401805460ff19166003179055516001600160a01b038316907f72ad339519151892bec004e5ac7688c5b7cd76c30ccd6ebcd03b6f6562e119bf906116f89086815260200190565b60405180910390a2505050565b61170f33836123a6565b61172b5760405162461bcd60e51b81526004016108779061343c565b61123484848484612845565b611764604051806060016040528060006001600160a01b0316815260200160608152602001606081525090565b6001600160a01b03808316600090815260fb602090815260409182902082516060810190935280549093168252600183018054929392918401916117a790613401565b80601f01602080910402602001604051908101604052809291908181526020018280546117d390613401565b80156118205780601f106117f557610100808354040283529160200191611820565b820191906000526020600020905b81548152906001019060200180831161180357829003601f168201915b5050505050815260200160028201805461183990613401565b80601f016020809104026020016040519081016040528092919081815260200182805461186590613401565b80156118b25780601f10611887576101008083540402835291602001916118b2565b820191906000526020600020905b81548152906001019060200180831161189557829003601f168201915b5050505050815250509050919050565b60606118cd826122d9565b60006118e460408051602081019091526000815290565b90506000815111611904576040518060200160405280600081525061192f565b8061190e84612878565b60405160200161191f929190613798565b6040516020818303038152906040525b9392505050565b610101602052836000526040600020602052826000526040600020602052816000526040600020818154811061196b57600080fd5b906000526020600020016000935093505050505481565b6001600160a01b038416600090815260fd60209081526040808320338452909152902054849060ff16611a015760405162461bcd60e51b815260206004820152602160248201527f4f6e6c79206d656469632063616e2063616c6c20746869732066756e6374696f6044820152603760f91b6064820152608401610877565b6001600160a01b03808616600081815260fb602052604090205490911614611a3b5760405162461bcd60e51b8152600401610877906134f4565b6000835111611a7d5760405162461bcd60e51b815260206004820152600e60248201526d139bdd1a1a5b99c81d1bc818591960921b6044820152606401610877565b8151835114611a9e5760405162461bcd60e51b8152600401610877906137c7565b6000835167ffffffffffffffff811115611aba57611aba612e92565b604051908082528060200260200182016040528015611aff57816020015b6040805180820190915260008082526020820152815260200190600190039081611ad85790505b50905060005b8451811015611bdb576000858281518110611b2257611b2261352b565b602002602001015190506000858381518110611b4057611b4061352b565b6020908102919091018101516001600160a01b038b16600090815260fe8352604080822086835290935291909120549091508214611b905760405162461bcd60e51b81526004016108779061380a565b60405180604001604052808381526020018261ffff16815250848481518110611bbb57611bbb61352b565b602002602001018190525050508080611bd390613641565b915050611b05565b50600061010060008154611bee90613641565b918290555090503360008281526101026020908152604080832080546001600160a01b03199081166001600160a01b039687161782556001808301805483168f8916908117909155600284018054909316978e169790971790915560048201805460ff1916909117905542600590910155928252610101905290812090336001600160a01b03908116825260208083019390935260409182016000908120918a16815290835290812080546001810182559082529181209091018290555b8251811015611e1a576000838281518110611cc957611cc961352b565b60200260200101519050611d336040518060400160405280601681526020017534b73232bc1034ba32b6a83932b9b1b934b83a34b7b760511b815250836040518060400160405280600e81526020016d1c1c995cd8dc9a5c1d1a5bdb925960921b81525086612976565b60008381526101026020908152604080832060030180546001808201835591855283852086516002928302909101908155868501519201805461ffff191661ffff9384161790556001600160a01b038e16855260fe8452828520865186529093529220015462010000900416611e075780516001600160a01b038a16600081815260fe60209081526040808320865184529091529081902090517fc25dbab8db15573076a68e10f7791bf517e1f359577879b903e5ea34d567486191611dfe91600190910190613541565b60405180910390a35b5080611e1281613641565b915050611cac565b506001600160a01b038616336001600160a01b0316886001600160a01b03167f40013f555a2e13179ace541ee0f5903e4f890a16cb874a6c0a51302881a075e784604051611e6a91815260200190565b60405180910390a450505050505050565b60606101026000838152602001908152602001600020600301805480602002602001604051908101604052809291908181526020016000905b82821015611ef757600084815260209081902060408051808201909152600285029091018054825260019081015461ffff16828401529083529092019101611eb4565b505050509050919050565b33600081815260fb60205260409020546001600160a01b031614611f385760405162461bcd60e51b81526004016108779061348a565b33600081815260fb60205260409020546001600160a01b031614611f995760405162461bcd60e51b8152602060048201526018602482015277486f73706974616c20646f6573206e6f742065786973747360401b6044820152606401610877565b6000825111611fdb5760405162461bcd60e51b815260206004820152600e60248201526d139bdd1a1a5b99c81d1bc818591960921b6044820152606401610877565b8051825114611ffc5760405162461bcd60e51b8152600401610877906137c7565b60005b8251811015610918576120453384838151811061201e5761201e61352b565b60200260200101518484815181106120385761203861352b565b60200260200101516129bf565b8061204f81613641565b915050611fff565b61205f6125f0565b6001600160a01b0381166120c45760405162461bcd60e51b815260206004820152602660248201527f4f776e61626c653a206e6577206f776e657220697320746865207a65726f206160448201526564647265737360d01b6064820152608401610877565b6120cd8161264a565b50565b6120d86125f0565b6001600160a01b03808316600081815260fb6020526040902054909116146121125760405162461bcd60e51b8152600401610877906134f4565b6001600160a01b038216600090815260fb6020526040812080546001600160a01b0319168155906121466001830182612c83565b612154600283016000612c83565b505060005b60fc5481101561229357826001600160a01b031660fc82815481106121805761218061352b565b6000918252602090912001546001600160a01b031614156122815760fc80546121ab9060019061383a565b815481106121bb576121bb61352b565b60009182526020909120015460fc80546001600160a01b0390921691839081106121e7576121e761352b565b600091825260209091200180546001600160a01b0319166001600160a01b039290921691909117905560fc80546122209060019061383a565b815481106122305761223061352b565b600091825260209091200180546001600160a01b031916905560fc80548061225a5761225a613851565b600082815260209020810160001990810180546001600160a01b0319169055019055612293565b8061228b81613641565b915050612159565b50816001600160a01b03167f583d4f8aef2b486fcdf45eed851ff69c65cc08a2e42b858bd7f5b38b48d5eaaa826040516122cd9190612dcf565b60405180910390a25050565b6000818152606760205260409020546001600160a01b03166120cd5760405162461bcd60e51b8152602060048201526018602482015277115490cdcc8c4e881a5b9d985b1a59081d1bdad95b88125160421b6044820152606401610877565b600081815260696020526040902080546001600160a01b0319166001600160a01b038416908117909155819061236d82610969565b6001600160a01b03167f8c5be1e5ebec7d5bd14f71427d1e84f3dd0314c0f7b2291e5b200ac8c7c3b92560405160405180910390a45050565b6000806123b283610969565b9050806001600160a01b0316846001600160a01b031614806123f957506001600160a01b038082166000908152606a602090815260408083209388168352929052205460ff165b8061241d5750836001600160a01b0316612412846107db565b6001600160a01b0316145b949350505050565b826001600160a01b031661243882610969565b6001600160a01b03161461249c5760405162461bcd60e51b815260206004820152602560248201527f4552433732313a207472616e736665722066726f6d20696e636f72726563742060448201526437bbb732b960d91b6064820152608401610877565b6001600160a01b0382166124fe5760405162461bcd60e51b8152602060048201526024808201527f4552433732313a207472616e7366657220746f20746865207a65726f206164646044820152637265737360e01b6064820152608401610877565b612509600082612338565b6001600160a01b038316600090815260686020526040812080546001929061253290849061383a565b90915550506001600160a01b038216600090815260686020526040812080546001929061256090849061365c565b909155505060008181526067602052604080822080546001600160a01b0319166001600160a01b0386811691821790925591518493918716917fddf252ad1be2c89b69c2b068fc378daa952ba7f163c4a11628f55a4df523b3ef91a4505050565b600054610100900460ff166125e85760405162461bcd60e51b815260040161087790613867565b610b94612aa1565b60c9546001600160a01b03163314610b945760405162461bcd60e51b815260206004820181905260248201527f4f776e61626c653a2063616c6c6572206973206e6f7420746865206f776e65726044820152606401610877565b60c980546001600160a01b038381166001600160a01b0319831681179093556040519116919082907f8be0079c531659141344cd1fd0a4f28419497f9722a3daafe3b4186f6b6457e090600090a35050565b816001600160a01b0316836001600160a01b031614156126fe5760405162461bcd60e51b815260206004820152601960248201527f4552433732313a20617070726f766520746f2063616c6c6572000000000000006044820152606401610877565b6001600160a01b038381166000818152606a6020908152604080832094871680845294825291829020805460ff191686151590811790915591519182527f17307eab39ab6107e8899845ad3d59bd9653f200f220920489ca2b5937696c319101610d83565b6001600160a01b038316600090815260fe6020908152604080832085845290915290205482146127a55760405162461bcd60e51b81526004016108779061380a565b6001600160a01b038316600090815260fe602090815260408083208584529091529020600290810180548392906127e790849062010000900461ffff166138b2565b92506101000a81548161ffff021916908361ffff16021790555081836001600160a01b03167f7b6cf151efb6b6db2874845a2581a75fc543f67d3f568749c9839f6e7abbb8a883604051610d83919061ffff91909116815260200190565b612850848484612425565b61285c84848484612ad1565b6112345760405162461bcd60e51b8152600401610877906138d5565b60608161289c5750506040805180820190915260018152600360fc1b602082015290565b8160005b81156128c657806128b081613641565b91506128bf9050600a8361393d565b91506128a0565b60008167ffffffffffffffff8111156128e1576128e1612e92565b6040519080825280601f01601f19166020018201604052801561290b576020820181803683370190505b5090505b841561241d5761292060018361383a565b915061292d600a86613951565b61293890603061365c565b60f81b81838151811061294d5761294d61352b565b60200101906001600160f81b031916908160001a90535061296f600a8661393d565b945061290f565b611234848484846040516024016129909493929190613965565b60408051601f198184030181529190526020810180516001600160e01b031663a0c4b22560e01b179052612bde565b6001600160a01b038316600090815260fe602090815260408083208584529091529020548214612a015760405162461bcd60e51b81526004016108779061380a565b6001600160a01b038316600090815260fe60209081526040808320858452909152902060029081018054839290612a4390849062010000900461ffff166139a2565b92506101000a81548161ffff021916908361ffff16021790555081836001600160a01b03167ff5e6752bcf3f7bd6724327e893eeaf2290c588a7c667f489ba0a1a4d96b92b1583604051610d83919061ffff91909116815260200190565b600054610100900460ff16612ac85760405162461bcd60e51b815260040161087790613867565b610b943361264a565b60006001600160a01b0384163b15612bd357604051630a85bd0160e11b81526001600160a01b0385169063150b7a0290612b159033908990889088906004016139bf565b602060405180830381600087803b158015612b2f57600080fd5b505af1925050508015612b5f575060408051601f3d908101601f19168201909252612b5c918101906139fc565b60015b612bb9573d808015612b8d576040519150601f19603f3d011682016040523d82523d6000602084013e612b92565b606091505b508051612bb15760405162461bcd60e51b8152600401610877906138d5565b805181602001fd5b6001600160e01b031916630a85bd0160e11b14905061241d565b506001949350505050565b80516a636f6e736f6c652e6c6f67602083016000808483855afa5050505050565b828054612c0b90613401565b90600052602060002090601f016020900481019282612c2d5760008555612c73565b82601f10612c4657805160ff1916838001178555612c73565b82800160010185558215612c73579182015b82811115612c73578251825591602001919060010190612c58565b50612c7f929150612cb9565b5090565b508054612c8f90613401565b6000825580601f10612c9f575050565b601f0160209004906000526020600020908101906120cd91905b5b80821115612c7f5760008155600101612cba565b6001600160e01b0319811681146120cd57600080fd5b600060208284031215612cf657600080fd5b813561192f81612cce565b6001600160a01b03811681146120cd57600080fd5b60008060408385031215612d2957600080fd5b8235612d3481612d01565b946020939093013593505050565b60005b83811015612d5d578181015183820152602001612d45565b838111156112345750506000910152565b60008151808452612d86816020860160208601612d42565b601f01601f19169290920160200192915050565b848152608060208201526000612db36080830186612d6e565b61ffff9485166040840152929093166060909101529392505050565b60208152600061192f6020830184612d6e565b600060208284031215612df457600080fd5b5035919050565b60008060408385031215612e0e57600080fd5b8235612e1981612d01565b91506020830135612e2981612d01565b809150509250929050565b600080600060608486031215612e4957600080fd5b8335612e5481612d01565b92506020840135612e6481612d01565b929592945050506040919091013590565b600060208284031215612e8757600080fd5b813561192f81612d01565b634e487b7160e01b600052604160045260246000fd5b604051601f8201601f1916810167ffffffffffffffff81118282101715612ed157612ed1612e92565b604052919050565b600067ffffffffffffffff821115612ef357612ef3612e92565b50601f01601f191660200190565b6000612f14612f0f84612ed9565b612ea8565b9050828152838383011115612f2857600080fd5b828260208301376000602084830101529392505050565b600082601f830112612f5057600080fd5b61192f83833560208501612f01565b803561ffff81168114612f7157600080fd5b919050565b600080600060608486031215612f8b57600080fd5b83359250602084013567ffffffffffffffff811115612fa957600080fd5b612fb586828701612f3f565b925050612fc460408501612f5f565b90509250925092565b600080600060608486031215612fe257600080fd5b8335612fed81612d01565b9250602084013567ffffffffffffffff8082111561300a57600080fd5b61301687838801612f3f565b9350604086013591508082111561302c57600080fd5b5061303986828701612f3f565b9150509250925092565b6000806040838503121561305657600080fd5b823561306181612d01565b915060208301358015158114612e2957600080fd5b6000806000806080858703121561308c57600080fd5b843561309781612d01565b935060208501356130a781612d01565b925060408501359150606085013567ffffffffffffffff8111156130ca57600080fd5b8501601f810187136130db57600080fd5b6130ea87823560208401612f01565b91505092959194509250565b602080825282516001600160a01b031682820152820151606060408301526000906131246080840182612d6e565b90506040840151601f198483030160608501526131418282612d6e565b95945050505050565b6000806000806080858703121561316057600080fd5b843561316b81612d01565b9350602085013561317b81612d01565b9250604085013561318b81612d01565b9396929550929360600135925050565b600067ffffffffffffffff8211156131b5576131b5612e92565b5060051b60200190565b600082601f8301126131d057600080fd5b813560206131e0612f0f8361319b565b82815260059290921b840181019181810190868411156131ff57600080fd5b8286015b8481101561321a5780358352918301918301613203565b509695505050505050565b600082601f83011261323657600080fd5b81356020613246612f0f8361319b565b82815260059290921b8401810191818101908684111561326557600080fd5b8286015b8481101561321a5761327a81612f5f565b8352918301918301613269565b6000806000806080858703121561329d57600080fd5b84356132a881612d01565b935060208501356132b881612d01565b9250604085013567ffffffffffffffff808211156132d557600080fd5b6132e1888389016131bf565b935060608701359150808211156132f757600080fd5b506130ea87828801613225565b602080825282518282018190526000919060409081850190868401855b8281101561334a5781518051855286015161ffff16868501529284019290850190600101613321565b5091979650505050505050565b6000806040838503121561336a57600080fd5b823567ffffffffffffffff8082111561338257600080fd5b61338e868387016131bf565b935060208501359150808211156133a457600080fd5b506133b185828601613225565b9150509250929050565b600080604083850312156133ce57600080fd5b82356133d981612d01565b9150602083013567ffffffffffffffff8111156133f557600080fd5b6133b185828601612f3f565b600181811c9082168061341557607f821691505b6020821081141561343657634e487b7160e01b600052602260045260246000fd5b50919050565b6020808252602e908201527f4552433732313a2063616c6c6572206973206e6f7420746f6b656e206f776e6560408201526d1c881b9bdc88185c1c1c9bdd995960921b606082015260800190565b60208082526024908201527f4f6e6c7920686f73706974616c2063616e2063616c6c20746869732066756e636040820152633a34b7b760e11b606082015260800190565b6040815260006134e16040830185612d6e565b905061ffff831660208301529392505050565b60208082526017908201527f486f73706974616c20646f6573206e6f74206578697374000000000000000000604082015260600190565b634e487b7160e01b600052603260045260246000fd5b600060208083526000845481600182811c91508083168061356357607f831692505b85831081141561358157634e487b7160e01b85526022600452602485fd5b87860183815260200181801561359e57600181146135af576135da565b60ff198616825287820196506135da565b60008b81526020902060005b868110156135d4578154848201529085019089016135bb565b83019750505b50949998505050505050505050565b60208082526022908201527f4e6f7420656e6f756768206d65646963696e652061742074686973206d6f6d656040820152611b9d60f21b606082015260800190565b634e487b7160e01b600052601160045260246000fd5b60006000198214156136555761365561362b565b5060010190565b6000821982111561366f5761366f61362b565b500190565b600082601f83011261368557600080fd5b8151613693612f0f82612ed9565b8181528460208386010111156136a857600080fd5b61241d826020830160208701612d42565b6000602082840312156136cb57600080fd5b815167ffffffffffffffff808211156136e357600080fd5b90830190606082860312156136f757600080fd5b60405160608101818110838211171561371257613712612e92565b604052825161372081612d01565b815260208301518281111561373457600080fd5b61374087828601613674565b60208301525060408301518281111561375857600080fd5b61376487828601613674565b60408301525095945050505050565b6040815260006137866040830185612d6e565b82810360208401526131418185612d6e565b600083516137aa818460208801612d42565b8351908301906137be818360208801612d42565b01949350505050565b60208082526023908201527f736b7573206c656e67687420646f6573206e6f74206d6174636820776974682060408201526271747960e81b606082015260800190565b6020808252601690820152751cdadd481b9bdd081c9959da5cdd195c9959081e595d60521b604082015260600190565b60008282101561384c5761384c61362b565b500390565b634e487b7160e01b600052603160045260246000fd5b6020808252602b908201527f496e697469616c697a61626c653a20636f6e7472616374206973206e6f74206960408201526a6e697469616c697a696e6760a81b606082015260800190565b600061ffff838116908316818110156138cd576138cd61362b565b039392505050565b60208082526032908201527f4552433732313a207472616e7366657220746f206e6f6e20455243373231526560408201527131b2b4bb32b91034b6b83632b6b2b73a32b960711b606082015260800190565b634e487b7160e01b600052601260045260246000fd5b60008261394c5761394c613927565b500490565b60008261396057613960613927565b500690565b6080815260006139786080830187612d6e565b85602084015282810360408401526139908186612d6e565b91505082606083015295945050505050565b600061ffff8083168185168083038211156137be576137be61362b565b6001600160a01b03858116825284166020820152604081018390526080606082018190526000906139f290830184612d6e565b9695505050505050565b600060208284031215613a0e57600080fd5b815161192f81612cce56fea2646970667358221220747fd8be1076f564200c9e79c377b09d06928def6dc67efc9a332ee1a5f5f5e964736f6c63430008090033",
  "devdoc": {
    "kind": "dev",
    "methods": {
      "approve(address,uint256)": {
        "details": "See {IERC721-approve}."
      },
      "balanceOf(address)": {
        "details": "See {IERC721-balanceOf}."
      },
      "getApproved(uint256)": {
        "details": "See {IERC721-getApproved}."
      },
      "isApprovedForAll(address,address)": {
        "details": "See {IERC721-isApprovedForAll}."
      },
      "name()": {
        "details": "See {IERC721Metadata-name}."
      },
      "owner()": {
        "details": "Returns the address of the current owner."
      },
      "ownerOf(uint256)": {
        "details": "See {IERC721-ownerOf}."
      },
      "paused()": {
        "details": "Returns true if the contract is paused, and false otherwise."
      },
      "renounceOwnership()": {
        "details": "Leaves the contract without owner. It will not be possible to call `onlyOwner` functions anymore. Can only be called by the current owner. NOTE: Renouncing ownership will leave the contract without an owner, thereby removing any functionality that is only available to the owner."
      },
      "safeTransferFrom(address,address,uint256)": {
        "details": "See {IERC721-safeTransferFrom}."
      },
      "safeTransferFrom(address,address,uint256,bytes)": {
        "details": "See {IERC721-safeTransferFrom}."
      },
      "setApprovalForAll(address,bool)": {
        "details": "See {IERC721-setApprovalForAll}."
      },
      "supportsInterface(bytes4)": {
        "details": "See {IERC165-supportsInterface}."
      },
      "symbol()": {
        "details": "See {IERC721Metadata-symbol}."
      },
      "tokenURI(uint256)": {
        "details": "See {IERC721Metadata-tokenURI}."
      },
      "transferFrom(address,address,uint256)": {
        "details": "See {IERC721-transferFrom}."
      },
      "transferOwnership(address)": {
        "details": "Transfers ownership of the contract to a new account (`newOwner`). Can only be called by the current owner."
      }
    },
    "version": 1
  },
  "userdoc": {
    "kind": "user",
    "methods": {
      "medicines(address,bytes32)": {
        "notice": "Medicines in Hospital - address of Hospital mapped to medicines by name "
      }
    },
    "version": 1
  },
  "storageLayout": {
    "storage": [
      {
        "astId": 138,
        "contract": "contracts/MedicineSupply.sol:MedicineSupply",
        "label": "_initialized",
        "offset": 0,
        "slot": "0",
        "type": "t_uint8"
      },
      {
        "astId": 141,
        "contract": "contracts/MedicineSupply.sol:MedicineSupply",
        "label": "_initializing",
        "offset": 1,
        "slot": "0",
        "type": "t_bool"
      },
      {
        "astId": 1746,
        "contract": "contracts/MedicineSupply.sol:MedicineSupply",
        "label": "__gap",
        "offset": 0,
        "slot": "1",
        "type": "t_array(t_uint256)50_storage"
      },
      {
        "astId": 2016,
        "contract": "contracts/MedicineSupply.sol:MedicineSupply",
        "label": "__gap",
        "offset": 0,
        "slot": "51",
        "type": "t_array(t_uint256)50_storage"
      },
      {
        "astId": 438,
        "contract": "contracts/MedicineSupply.sol:MedicineSupply",
        "label": "_name",
        "offset": 0,
        "slot": "101",
        "type": "t_string_storage"
      },
      {
        "astId": 440,
        "contract": "contracts/MedicineSupply.sol:MedicineSupply",
        "label": "_symbol",
        "offset": 0,
        "slot": "102",
        "type": "t_string_storage"
      },
      {
        "astId": 444,
        "contract": "contracts/MedicineSupply.sol:MedicineSupply",
        "label": "_owners",
        "offset": 0,
        "slot": "103",
        "type": "t_mapping(t_uint256,t_address)"
      },
      {
        "astId": 448,
        "contract": "contracts/MedicineSupply.sol:MedicineSupply",
        "label": "_balances",
        "offset": 0,
        "slot": "104",
        "type": "t_mapping(t_address,t_uint256)"
      },
      {
        "astId": 452,
        "contract": "contracts/MedicineSupply.sol:MedicineSupply",
        "label": "_tokenApprovals",
        "offset": 0,
        "slot": "105",
        "type": "t_mapping(t_uint256,t_address)"
      },
      {
        "astId": 458,
        "contract": "contracts/MedicineSupply.sol:MedicineSupply",
        "label": "_operatorApprovals",
        "offset": 0,
        "slot": "106",
        "type": "t_mapping(t_address,t_mapping(t_address,t_bool))"
      },
      {
        "astId": 1300,
        "contract": "contracts/MedicineSupply.sol:MedicineSupply",
        "label": "__gap",
        "offset": 0,
        "slot": "107",
        "type": "t_array(t_uint256)44_storage"
      },
      {
        "astId": 303,
        "contract": "contracts/MedicineSupply.sol:MedicineSupply",
        "label": "_paused",
        "offset": 0,
        "slot": "151",
        "type": "t_bool"
      },
      {
        "astId": 408,
        "contract": "contracts/MedicineSupply.sol:MedicineSupply",
        "label": "__gap",
        "offset": 0,
        "slot": "152",
        "type": "t_array(t_uint256)49_storage"
      },
      {
        "astId": 10,
        "contract": "contracts/MedicineSupply.sol:MedicineSupply",
        "label": "_owner",
        "offset": 0,
        "slot": "201",
        "type": "t_address"
      },
      {
        "astId": 130,
        "contract": "contracts/MedicineSupply.sol:MedicineSupply",
        "label": "__gap",
        "offset": 0,
        "slot": "202",
        "type": "t_array(t_uint256)49_storage"
      },
      {
        "astId": 2109,
        "contract": "contracts/MedicineSupply.sol:MedicineSupply",
        "label": "hospitals",
        "offset": 0,
        "slot": "251",
        "type": "t_mapping(t_address,t_struct(Hospital)2059_storage)"
      },
      {
        "astId": 2112,
        "contract": "contracts/MedicineSupply.sol:MedicineSupply",
        "label": "hospitalsList",
        "offset": 0,
        "slot": "252",
        "type": "t_array(t_address)dyn_storage"
      },
      {
        "astId": 2118,
        "contract": "contracts/MedicineSupply.sol:MedicineSupply",
        "label": "medicsInHospitals",
        "offset": 0,
        "slot": "253",
        "type": "t_mapping(t_address,t_mapping(t_address,t_bool))"
      },
      {
        "astId": 2126,
        "contract": "contracts/MedicineSupply.sol:MedicineSupply",
        "label": "medicines",
        "offset": 0,
        "slot": "254",
        "type": "t_mapping(t_address,t_mapping(t_bytes32,t_struct(Medicine)2052_storage))"
      },
      {
        "astId": 2129,
        "contract": "contracts/MedicineSupply.sol:MedicineSupply",
        "label": "medicsBook",
        "offset": 0,
        "slot": "255",
        "type": "t_contract(IMedicsBook)2096"
      },
      {
        "astId": 2131,
        "contract": "contracts/MedicineSupply.sol:MedicineSupply",
        "label": "prescriptionsCount",
        "offset": 0,
        "slot": "256",
        "type": "t_uint256"
      },
      {
        "astId": 2140,
        "contract": "contracts/MedicineSupply.sol:MedicineSupply",
        "label": "patientPrescriptions",
        "offset": 0,
        "slot": "257",
        "type": "t_mapping(t_address,t_mapping(t_address,t_mapping(t_address,t_array(t_uint256)dyn_storage)))"
      },
      {
        "astId": 2145,
        "contract": "contracts/MedicineSupply.sol:MedicineSupply",
        "label": "prescriptions",
        "offset": 0,
        "slot": "258",
        "type": "t_mapping(t_uint256,t_struct(Prescription)2075_storage)"
      }
    ],
    "types": {
      "t_address": {
        "encoding": "inplace",
        "label": "address",
        "numberOfBytes": "20"
      },
      "t_array(t_address)dyn_storage": {
        "base": "t_address",
        "encoding": "dynamic_array",
        "label": "address[]",
        "numberOfBytes": "32"
      },
      "t_array(t_struct(ItemPrescription)2080_storage)dyn_storage": {
        "base": "t_struct(ItemPrescription)2080_storage",
        "encoding": "dynamic_array",
        "label": "struct ItemPrescription[]",
        "numberOfBytes": "32"
      },
      "t_array(t_uint256)44_storage": {
        "base": "t_uint256",
        "encoding": "inplace",
        "label": "uint256[44]",
        "numberOfBytes": "1408"
      },
      "t_array(t_uint256)49_storage": {
        "base": "t_uint256",
        "encoding": "inplace",
        "label": "uint256[49]",
        "numberOfBytes": "1568"
      },
      "t_array(t_uint256)50_storage": {
        "base": "t_uint256",
        "encoding": "inplace",
        "label": "uint256[50]",
        "numberOfBytes": "1600"
      },
      "t_array(t_uint256)dyn_storage": {
        "base": "t_uint256",
        "encoding": "dynamic_array",
        "label": "uint256[]",
        "numberOfBytes": "32"
      },
      "t_bool": {
        "encoding": "inplace",
        "label": "bool",
        "numberOfBytes": "1"
      },
      "t_bytes1": {
        "encoding": "inplace",
        "label": "bytes1",
        "numberOfBytes": "1"
      },
      "t_bytes32": {
        "encoding": "inplace",
        "label": "bytes32",
        "numberOfBytes": "32"
      },
      "t_contract(IMedicsBook)2096": {
        "encoding": "inplace",
        "label": "contract IMedicsBook",
        "numberOfBytes": "20"
      },
      "t_mapping(t_address,t_array(t_uint256)dyn_storage)": {
        "encoding": "mapping",
        "key": "t_address",
        "label": "mapping(address => uint256[])",
        "numberOfBytes": "32",
        "value": "t_array(t_uint256)dyn_storage"
      },
      "t_mapping(t_address,t_bool)": {
        "encoding": "mapping",
        "key": "t_address",
        "label": "mapping(address => bool)",
        "numberOfBytes": "32",
        "value": "t_bool"
      },
      "t_mapping(t_address,t_mapping(t_address,t_array(t_uint256)dyn_storage))": {
        "encoding": "mapping",
        "key": "t_address",
        "label": "mapping(address => mapping(address => uint256[]))",
        "numberOfBytes": "32",
        "value": "t_mapping(t_address,t_array(t_uint256)dyn_storage)"
      },
      "t_mapping(t_address,t_mapping(t_address,t_bool))": {
        "encoding": "mapping",
        "key": "t_address",
        "label": "mapping(address => mapping(address => bool))",
        "numberOfBytes": "32",
        "value": "t_mapping(t_address,t_bool)"
      },
      "t_mapping(t_address,t_mapping(t_address,t_mapping(t_address,t_array(t_uint256)dyn_storage)))": {
        "encoding": "mapping",
        "key": "t_address",
        "label": "mapping(address => mapping(address => mapping(address => uint256[])))",
        "numberOfBytes": "32",
        "value": "t_mapping(t_address,t_mapping(t_address,t_array(t_uint256)dyn_storage))"
      },
      "t_mapping(t_address,t_mapping(t_bytes32,t_struct(Medicine)2052_storage))": {
        "encoding": "mapping",
        "key": "t_address",
        "label": "mapping(address => mapping(bytes32 => struct Medicine))",
        "numberOfBytes": "32",
        "value": "t_mapping(t_bytes32,t_struct(Medicine)2052_storage)"
      },
      "t_mapping(t_address,t_struct(Hospital)2059_storage)": {
        "encoding": "mapping",
        "key": "t_address",
        "label": "mapping(address => struct Hospital)",
        "numberOfBytes": "32",
        "value": "t_struct(Hospital)2059_storage"
      },
      "t_mapping(t_address,t_uint256)": {
        "encoding": "mapping",
        "key": "t_address",
        "label": "mapping(address => uint256)",
        "numberOfBytes": "32",
        "value": "t_uint256"
      },
      "t_mapping(t_bytes32,t_struct(Medicine)2052_storage)": {
        "encoding": "mapping",
        "key": "t_bytes32",
        "label": "mapping(bytes32 => struct Medicine)",
        "numberOfBytes": "32",
        "value": "t_struct(Medicine)2052_storage"
      },
      "t_mapping(t_uint256,t_address)": {
        "encoding": "mapping",
        "key": "t_uint256",
        "label": "mapping(uint256 => address)",
        "numberOfBytes": "32",
        "value": "t_address"
      },
      "t_mapping(t_uint256,t_struct(Prescription)2075_storage)": {
        "encoding": "mapping",
        "key": "t_uint256",
        "label": "mapping(uint256 => struct Prescription)",
        "numberOfBytes": "32",
        "value": "t_struct(Prescription)2075_storage"
      },
      "t_string_storage": {
        "encoding": "bytes",
        "label": "string",
        "numberOfBytes": "32"
      },
      "t_struct(Hospital)2059_storage": {
        "encoding": "inplace",
        "label": "struct Hospital",
        "members": [
          {
            "astId": 2054,
            "contract": "contracts/MedicineSupply.sol:MedicineSupply",
            "label": "addr",
            "offset": 0,
            "slot": "0",
            "type": "t_address"
          },
          {
            "astId": 2056,
            "contract": "contracts/MedicineSupply.sol:MedicineSupply",
            "label": "name",
            "offset": 0,
            "slot": "1",
            "type": "t_string_storage"
          },
          {
            "astId": 2058,
            "contract": "contracts/MedicineSupply.sol:MedicineSupply",
            "label": "url",
            "offset": 0,
            "slot": "2",
            "type": "t_string_storage"
          }
        ],
        "numberOfBytes": "96"
      },
      "t_struct(ItemPrescription)2080_storage": {
        "encoding": "inplace",
        "label": "struct ItemPrescription",
        "members": [
          {
            "astId": 2077,
            "contract": "contracts/MedicineSupply.sol:MedicineSupply",
            "label": "sku",
            "offset": 0,
            "slot": "0",
            "type": "t_bytes32"
          },
          {
            "astId": 2079,
            "contract": "contracts/MedicineSupply.sol:MedicineSupply",
            "label": "quantity",
            "offset": 0,
            "slot": "1",
            "type": "t_uint16"
          }
        ],
        "numberOfBytes": "64"
      },
      "t_struct(Medicine)2052_storage": {
        "encoding": "inplace",
        "label": "struct Medicine",
        "members": [
          {
            "astId": 2045,
            "contract": "contracts/MedicineSupply.sol:MedicineSupply",
            "label": "sku",
            "offset": 0,
            "slot": "0",
            "type": "t_bytes32"
          },
          {
            "astId": 2047,
            "contract": "contracts/MedicineSupply.sol:MedicineSupply",
            "label": "name",
            "offset": 0,
            "slot": "1",
            "type": "t_string_storage"
          },
          {
            "astId": 2049,
            "contract": "contracts/MedicineSupply.sol:MedicineSupply",
            "label": "price",
            "offset": 0,
            "slot": "2",
            "type": "t_uint16"
          },
          {
            "astId": 2051,
            "contract": "contracts/MedicineSupply.sol:MedicineSupply",
            "label": "quantity",
            "offset": 2,
            "slot": "2",
            "type": "t_uint16"
          }
        ],
        "numberOfBytes": "96"
      },
      "t_struct(Prescription)2075_storage": {
        "encoding": "inplace",
        "label": "struct Prescription",
        "members": [
          {
            "astId": 2061,
            "contract": "contracts/MedicineSupply.sol:MedicineSupply",
            "label": "medic",
            "offset": 0,
            "slot": "0",
            "type": "t_address"
          },
          {
            "astId": 2063,
            "contract": "contracts/MedicineSupply.sol:MedicineSupply",
            "label": "hospital",
            "offset": 0,
            "slot": "1",
            "type": "t_address"
          },
          {
            "astId": 2065,
            "contract": "contracts/MedicineSupply.sol:MedicineSupply",
            "label": "patient",
            "offset": 0,
            "slot": "2",
            "type": "t_address"
          },
          {
            "astId": 2069,
            "contract": "contracts/MedicineSupply.sol:MedicineSupply",
            "label": "items",
            "offset": 0,
            "slot": "3",
            "type": "t_array(t_struct(ItemPrescription)2080_storage)dyn_storage"
          },
          {
            "astId": 2072,
            "contract": "contracts/MedicineSupply.sol:MedicineSupply",
            "label": "filledStatus",
            "offset": 0,
            "slot": "4",
            "type": "t_bytes1"
          },
          {
            "astId": 2074,
            "contract": "contracts/MedicineSupply.sol:MedicineSupply",
            "label": "timestamp",
            "offset": 0,
            "slot": "5",
            "type": "t_uint256"
          }
        ],
        "numberOfBytes": "192"
      },
      "t_uint16": {
        "encoding": "inplace",
        "label": "uint16",
        "numberOfBytes": "2"
      },
      "t_uint256": {
        "encoding": "inplace",
        "label": "uint256",
        "numberOfBytes": "32"
      },
      "t_uint8": {
        "encoding": "inplace",
        "label": "uint8",
        "numberOfBytes": "1"
      }
    }
  }
}