{
  "address": "0x5FbDB2315678afecb367f032d93F642f64180aa3",
  "abi": [
    {
      "inputs": [],
      "stateMutability": "nonpayable",
      "type": "constructor"
    },
    {
      "anonymous": false,
      "inputs": [
        {
          "indexed": true,
          "internalType": "address",
          "name": "owner",
          "type": "address"
        },
        {
          "indexed": true,
          "internalType": "address",
          "name": "approved",
          "type": "address"
        },
        {
          "indexed": true,
          "internalType": "uint256",
          "name": "tokenId",
          "type": "uint256"
        }
      ],
      "name": "Approval",
      "type": "event"
    },
    {
      "anonymous": false,
      "inputs": [
        {
          "indexed": true,
          "internalType": "address",
          "name": "owner",
          "type": "address"
        },
        {
          "indexed": true,
          "internalType": "address",
          "name": "operator",
          "type": "address"
        },
        {
          "indexed": false,
          "internalType": "bool",
          "name": "approved",
          "type": "bool"
        }
      ],
      "name": "ApprovalForAll",
      "type": "event"
    },
    {
      "anonymous": false,
      "inputs": [
        {
          "indexed": false,
          "internalType": "uint8",
          "name": "version",
          "type": "uint8"
        }
      ],
      "name": "Initialized",
      "type": "event"
    },
    {
      "anonymous": false,
      "inputs": [
        {
          "indexed": false,
          "internalType": "address",
          "name": "addr",
          "type": "address"
        },
        {
          "indexed": false,
          "internalType": "string",
          "name": "name",
          "type": "string"
        }
      ],
      "name": "NewMedic",
      "type": "event"
    },
    {
      "anonymous": false,
      "inputs": [
        {
          "indexed": false,
          "internalType": "address",
          "name": "account",
          "type": "address"
        }
      ],
      "name": "Paused",
      "type": "event"
    },
    {
      "anonymous": false,
      "inputs": [
        {
          "indexed": true,
          "internalType": "address",
          "name": "from",
          "type": "address"
        },
        {
          "indexed": true,
          "internalType": "address",
          "name": "to",
          "type": "address"
        },
        {
          "indexed": true,
          "internalType": "uint256",
          "name": "tokenId",
          "type": "uint256"
        }
      ],
      "name": "Transfer",
      "type": "event"
    },
    {
      "anonymous": false,
      "inputs": [
        {
          "indexed": false,
          "internalType": "address",
          "name": "account",
          "type": "address"
        }
      ],
      "name": "Unpaused",
      "type": "event"
    },
    {
      "inputs": [
        {
          "internalType": "string",
          "name": "_name",
          "type": "string"
        },
        {
          "internalType": "string",
          "name": "_url",
          "type": "string"
        }
      ],
      "name": "addMedic",
      "outputs": [],
      "stateMutability": "nonpayable",
      "type": "function"
    },
    {
      "inputs": [
        {
          "internalType": "address",
          "name": "to",
          "type": "address"
        },
        {
          "internalType": "uint256",
          "name": "tokenId",
          "type": "uint256"
        }
      ],
      "name": "approve",
      "outputs": [],
      "stateMutability": "nonpayable",
      "type": "function"
    },
    {
      "inputs": [
        {
          "internalType": "address",
          "name": "owner",
          "type": "address"
        }
      ],
      "name": "balanceOf",
      "outputs": [
        {
          "internalType": "uint256",
          "name": "",
          "type": "uint256"
        }
      ],
      "stateMutability": "view",
      "type": "function"
    },
    {
      "inputs": [
        {
          "internalType": "address",
          "name": "_medic",
          "type": "address"
        }
      ],
      "name": "existMedic",
      "outputs": [
        {
          "internalType": "bool",
          "name": "",
          "type": "bool"
        }
      ],
      "stateMutability": "view",
      "type": "function"
    },
    {
      "inputs": [
        {
          "internalType": "uint256",
          "name": "tokenId",
          "type": "uint256"
        }
      ],
      "name": "getApproved",
      "outputs": [
        {
          "internalType": "address",
          "name": "",
          "type": "address"
        }
      ],
      "stateMutability": "view",
      "type": "function"
    },
    {
      "inputs": [
        {
          "internalType": "uint256",
          "name": "page",
          "type": "uint256"
        },
        {
          "internalType": "uint256",
          "name": "size",
          "type": "uint256"
        }
      ],
      "name": "getDoctors",
      "outputs": [
        {
          "internalType": "address[]",
          "name": "",
          "type": "address[]"
        }
      ],
      "stateMutability": "view",
      "type": "function"
    },
    {
      "inputs": [],
      "name": "getDoctorsCount",
      "outputs": [
        {
          "internalType": "uint256",
          "name": "",
          "type": "uint256"
        }
      ],
      "stateMutability": "view",
      "type": "function"
    },
    {
      "inputs": [
        {
          "internalType": "address",
          "name": "_medic",
          "type": "address"
        }
      ],
      "name": "getMedic",
      "outputs": [
        {
          "components": [
            {
              "internalType": "address",
              "name": "addr",
              "type": "address"
            },
            {
              "internalType": "string",
              "name": "name",
              "type": "string"
            },
            {
              "internalType": "string",
              "name": "url",
              "type": "string"
            }
          ],
          "internalType": "struct Medic",
          "name": "",
          "type": "tuple"
        }
      ],
      "stateMutability": "view",
      "type": "function"
    },
    {
      "inputs": [],
      "name": "initialize",
      "outputs": [],
      "stateMutability": "nonpayable",
      "type": "function"
    },
    {
      "inputs": [
        {
          "internalType": "address",
          "name": "owner",
          "type": "address"
        },
        {
          "internalType": "address",
          "name": "operator",
          "type": "address"
        }
      ],
      "name": "isApprovedForAll",
      "outputs": [
        {
          "internalType": "bool",
          "name": "",
          "type": "bool"
        }
      ],
      "stateMutability": "view",
      "type": "function"
    },
    {
      "inputs": [
        {
          "internalType": "uint256",
          "name": "",
          "type": "uint256"
        }
      ],
      "name": "medicsList",
      "outputs": [
        {
          "internalType": "address",
          "name": "",
          "type": "address"
        }
      ],
      "stateMutability": "view",
      "type": "function"
    },
    {
      "inputs": [],
      "name": "name",
      "outputs": [
        {
          "internalType": "string",
          "name": "",
          "type": "string"
        }
      ],
      "stateMutability": "view",
      "type": "function"
    },
    {
      "inputs": [
        {
          "internalType": "uint256",
          "name": "tokenId",
          "type": "uint256"
        }
      ],
      "name": "ownerOf",
      "outputs": [
        {
          "internalType": "address",
          "name": "",
          "type": "address"
        }
      ],
      "stateMutability": "view",
      "type": "function"
    },
    {
      "inputs": [],
      "name": "paused",
      "outputs": [
        {
          "internalType": "bool",
          "name": "",
          "type": "bool"
        }
      ],
      "stateMutability": "view",
      "type": "function"
    },
    {
      "inputs": [
        {
          "internalType": "address",
          "name": "from",
          "type": "address"
        },
        {
          "internalType": "address",
          "name": "to",
          "type": "address"
        },
        {
          "internalType": "uint256",
          "name": "tokenId",
          "type": "uint256"
        }
      ],
      "name": "safeTransferFrom",
      "outputs": [],
      "stateMutability": "nonpayable",
      "type": "function"
    },
    {
      "inputs": [
        {
          "internalType": "address",
          "name": "from",
          "type": "address"
        },
        {
          "internalType": "address",
          "name": "to",
          "type": "address"
        },
        {
          "internalType": "uint256",
          "name": "tokenId",
          "type": "uint256"
        },
        {
          "internalType": "bytes",
          "name": "data",
          "type": "bytes"
        }
      ],
      "name": "safeTransferFrom",
      "outputs": [],
      "stateMutability": "nonpayable",
      "type": "function"
    },
    {
      "inputs": [
        {
          "internalType": "address",
          "name": "operator",
          "type": "address"
        },
        {
          "internalType": "bool",
          "name": "approved",
          "type": "bool"
        }
      ],
      "name": "setApprovalForAll",
      "outputs": [],
      "stateMutability": "nonpayable",
      "type": "function"
    },
    {
      "inputs": [
        {
          "internalType": "bytes4",
          "name": "interfaceId",
          "type": "bytes4"
        }
      ],
      "name": "supportsInterface",
      "outputs": [
        {
          "internalType": "bool",
          "name": "",
          "type": "bool"
        }
      ],
      "stateMutability": "view",
      "type": "function"
    },
    {
      "inputs": [],
      "name": "symbol",
      "outputs": [
        {
          "internalType": "string",
          "name": "",
          "type": "string"
        }
      ],
      "stateMutability": "view",
      "type": "function"
    },
    {
      "inputs": [
        {
          "internalType": "uint256",
          "name": "tokenId",
          "type": "uint256"
        }
      ],
      "name": "tokenURI",
      "outputs": [
        {
          "internalType": "string",
          "name": "",
          "type": "string"
        }
      ],
      "stateMutability": "view",
      "type": "function"
    },
    {
      "inputs": [
        {
          "internalType": "address",
          "name": "from",
          "type": "address"
        },
        {
          "internalType": "address",
          "name": "to",
          "type": "address"
        },
        {
          "internalType": "uint256",
          "name": "tokenId",
          "type": "uint256"
        }
      ],
      "name": "transferFrom",
      "outputs": [],
      "stateMutability": "nonpayable",
      "type": "function"
    },
    {
      "inputs": [
        {
          "internalType": "string",
          "name": "_name",
          "type": "string"
        },
        {
          "internalType": "string",
          "name": "_url",
          "type": "string"
        }
      ],
      "name": "updateMedic",
      "outputs": [],
      "stateMutability": "nonpayable",
      "type": "function"
    }
  ],
  "transactionHash": "0x53f63bc884a2de8c19e5d90b360bcd71b6778ccfa3383e2b7205c750b163fb5e",
  "args": [],
  "numDeployments": 1,
  "solcInputHash": "56fc8133a144a8c3429d78b35130f7f5",
  "bytecode": "0x608060405234801561001057600080fd5b50611b29806100206000396000f3fe608060405234801561001057600080fd5b50600436106101425760003560e01c806379b28f4f116100b8578063a22cb4651161007c578063a22cb465146102bf578063b39c2861146102d2578063b88d4fde146102e5578063c87b56dd146102f8578063e3b99f801461030b578063e985e9c51461031e57600080fd5b806379b28f4f1461025c5780638129fc1c1461027c578063885fe8691461028457806395392941146102a457806395d89b41146102b757600080fd5b806331357af21161010a57806331357af2146101d757806342842e0e146101e957806347fff12f146101fc5780635c975abb1461022b5780636352211e1461023657806370a082311461024957600080fd5b806301ffc9a71461014757806306fdde031461016f578063081812fc14610184578063095ea7b3146101af57806323b872dd146101c4575b600080fd5b61015a6101553660046114c0565b61035a565b60405190151581526020015b60405180910390f35b6101776103ac565b6040516101669190611535565b610197610192366004611548565b61043e565b6040516001600160a01b039091168152602001610166565b6101c26101bd36600461157d565b610465565b005b6101c26101d23660046115a7565b610580565b60ca545b604051908152602001610166565b6101c26101f73660046115a7565b6105b1565b61015a61020a3660046115e3565b6001600160a01b03908116600081815260c960205260409020549091161490565b60975460ff1661015a565b610197610244366004611548565b6105cc565b6101db6102573660046115e3565b61062c565b61026f61026a3660046115e3565b6106b2565b60405161016691906115fe565b6101c261083d565b610297610292366004611652565b610946565b6040516101669190611674565b6101c26102b236600461176d565b610baa565b610177610c67565b6101c26102cd3660046117d1565b610c76565b6101c26102e036600461176d565b610c85565b6101c26102f336600461180d565b610d46565b610177610306366004611548565b610d7e565b610197610319366004611548565b610df2565b61015a61032c366004611889565b6001600160a01b039182166000908152606a6020908152604080832093909416825291909152205460ff1690565b60006001600160e01b031982166380ac58cd60e01b148061038b57506001600160e01b03198216635b5e139f60e01b145b806103a657506301ffc9a760e01b6001600160e01b03198316145b92915050565b6060606580546103bb906118bc565b80601f01602080910402602001604051908101604052809291908181526020018280546103e7906118bc565b80156104345780601f1061040957610100808354040283529160200191610434565b820191906000526020600020905b81548152906001019060200180831161041757829003601f168201915b5050505050905090565b600061044982610e1c565b506000908152606960205260409020546001600160a01b031690565b6000610470826105cc565b9050806001600160a01b0316836001600160a01b031614156104e35760405162461bcd60e51b815260206004820152602160248201527f4552433732313a20617070726f76616c20746f2063757272656e74206f776e656044820152603960f91b60648201526084015b60405180910390fd5b336001600160a01b03821614806104ff57506104ff813361032c565b6105715760405162461bcd60e51b815260206004820152603e60248201527f4552433732313a20617070726f76652063616c6c6572206973206e6f7420746f60448201527f6b656e206f776e6572206e6f7220617070726f76656420666f7220616c6c000060648201526084016104da565b61057b8383610e7b565b505050565b61058a3382610ee9565b6105a65760405162461bcd60e51b81526004016104da906118f7565b61057b838383610f68565b61057b83838360405180602001604052806000815250610d46565b6000818152606760205260408120546001600160a01b0316806103a65760405162461bcd60e51b8152602060048201526018602482015277115490cdcc8c4e881a5b9d985b1a59081d1bdad95b88125160421b60448201526064016104da565b60006001600160a01b0382166106965760405162461bcd60e51b815260206004820152602960248201527f4552433732313a2061646472657373207a65726f206973206e6f7420612076616044820152683634b21037bbb732b960b91b60648201526084016104da565b506001600160a01b031660009081526068602052604090205490565b6106df604051806060016040528060006001600160a01b0316815260200160608152602001606081525090565b6001600160a01b03808316600090815260c960209081526040918290208251606081019093528054909316825260018301805492939291840191610722906118bc565b80601f016020809104026020016040519081016040528092919081815260200182805461074e906118bc565b801561079b5780601f106107705761010080835404028352916020019161079b565b820191906000526020600020905b81548152906001019060200180831161077e57829003601f168201915b505050505081526020016002820180546107b4906118bc565b80601f01602080910402602001604051908101604052809291908181526020018280546107e0906118bc565b801561082d5780601f106108025761010080835404028352916020019161082d565b820191906000526020600020905b81548152906001019060200180831161081057829003601f168201915b5050505050815250509050919050565b600054610100900460ff161580801561085d5750600054600160ff909116105b806108775750303b158015610877575060005460ff166001145b6108da5760405162461bcd60e51b815260206004820152602e60248201527f496e697469616c697a61626c653a20636f6e747261637420697320616c72656160448201526d191e481a5b9a5d1a585b1a5e995960921b60648201526084016104da565b6000805460ff1916600117905580156108fd576000805461ff0019166101001790555b8015610943576000805461ff0019169055604051600181527f7f26b83ff96e1f2b6a682f133852f6798a09c465da95921460cefb38474024989060200160405180910390a15b50565b6060600083116109985760405162461bcd60e51b815260206004820152601b60248201527f50616765206d7573742062652067726561746572207468616e2030000000000060448201526064016104da565b600082116109e85760405162461bcd60e51b815260206004820152601b60248201527f53697a65206d7573742062652067726561746572207468616e2030000000000060448201526064016104da565b60006109f360ca5490565b9050600083610a0360018761195b565b610a0d9190611972565b9050818110610a525760405162461bcd60e51b815260206004820152601160248201527050616765206f7574206f662072616e676560781b60448201526064016104da565b6000610a5e8587611972565b90506000838210610a6f5783610a71565b815b9050808310610ab65760405162461bcd60e51b815260206004820152601160248201527050616765206f7574206f662072616e676560781b60448201526064016104da565b6000610ac2848361195b565b905060008167ffffffffffffffff811115610adf57610adf6116c1565b604051908082528060200260200182016040528015610b08578160200160208202803683370190505b50905084831415610b205795506103a6945050505050565b6000855b84811015610b9b5760ca8181548110610b3f57610b3f611991565b6000918252602090912001546001600160a01b03168383610b5f816119a7565b945081518110610b7157610b71611991565b6001600160a01b039092166020928302919091019091015280610b93816119a7565b915050610b24565b50909998505050505050505050565b33600081815260c960205260409020546001600160a01b031614610c1a5760405162461bcd60e51b815260206004820152602160248201527f4f6e6c79206d656469632063616e2063616c6c20746869732066756e6374696f6044820152603760f91b60648201526084016104da565b33600090815260c9602090815260409091208351610c4092600190920191850190611411565b5033600090815260c960209081526040909120825161057b92600290920191840190611411565b6060606680546103bb906118bc565b610c81338383611104565b5050565b60408051606081018252338082526020808301868152838501869052600092835260c9825293909120825181546001600160a01b0319166001600160a01b0390911617815592518051929392610ce19260018501920190611411565b5060408201518051610cfd916002840191602090910190611411565b505060ca80546001810182556000919091527f42d72674974f694b5f5159593243114d38a5c39c89d6b62fee061ff523240ee10180546001600160a01b03191633179055505050565b610d503383610ee9565b610d6c5760405162461bcd60e51b81526004016104da906118f7565b610d78848484846111d3565b50505050565b6060610d8982610e1c565b6000610da060408051602081019091526000815290565b90506000815111610dc05760405180602001604052806000815250610deb565b80610dca84611206565b604051602001610ddb9291906119c2565b6040516020818303038152906040525b9392505050565b60ca8181548110610e0257600080fd5b6000918252602090912001546001600160a01b0316905081565b6000818152606760205260409020546001600160a01b03166109435760405162461bcd60e51b8152602060048201526018602482015277115490cdcc8c4e881a5b9d985b1a59081d1bdad95b88125160421b60448201526064016104da565b600081815260696020526040902080546001600160a01b0319166001600160a01b0384169081179091558190610eb0826105cc565b6001600160a01b03167f8c5be1e5ebec7d5bd14f71427d1e84f3dd0314c0f7b2291e5b200ac8c7c3b92560405160405180910390a45050565b600080610ef5836105cc565b9050806001600160a01b0316846001600160a01b03161480610f3c57506001600160a01b038082166000908152606a602090815260408083209388168352929052205460ff165b80610f605750836001600160a01b0316610f558461043e565b6001600160a01b0316145b949350505050565b826001600160a01b0316610f7b826105cc565b6001600160a01b031614610fdf5760405162461bcd60e51b815260206004820152602560248201527f4552433732313a207472616e736665722066726f6d20696e636f72726563742060448201526437bbb732b960d91b60648201526084016104da565b6001600160a01b0382166110415760405162461bcd60e51b8152602060048201526024808201527f4552433732313a207472616e7366657220746f20746865207a65726f206164646044820152637265737360e01b60648201526084016104da565b61104c600082610e7b565b6001600160a01b038316600090815260686020526040812080546001929061107590849061195b565b90915550506001600160a01b03821660009081526068602052604081208054600192906110a39084906119f1565b909155505060008181526067602052604080822080546001600160a01b0319166001600160a01b0386811691821790925591518493918716917fddf252ad1be2c89b69c2b068fc378daa952ba7f163c4a11628f55a4df523b3ef91a4505050565b816001600160a01b0316836001600160a01b031614156111665760405162461bcd60e51b815260206004820152601960248201527f4552433732313a20617070726f766520746f2063616c6c65720000000000000060448201526064016104da565b6001600160a01b038381166000818152606a6020908152604080832094871680845294825291829020805460ff191686151590811790915591519182527f17307eab39ab6107e8899845ad3d59bd9653f200f220920489ca2b5937696c31910160405180910390a3505050565b6111de848484610f68565b6111ea84848484611304565b610d785760405162461bcd60e51b81526004016104da90611a09565b60608161122a5750506040805180820190915260018152600360fc1b602082015290565b8160005b8115611254578061123e816119a7565b915061124d9050600a83611a71565b915061122e565b60008167ffffffffffffffff81111561126f5761126f6116c1565b6040519080825280601f01601f191660200182016040528015611299576020820181803683370190505b5090505b8415610f60576112ae60018361195b565b91506112bb600a86611a85565b6112c69060306119f1565b60f81b8183815181106112db576112db611991565b60200101906001600160f81b031916908160001a9053506112fd600a86611a71565b945061129d565b60006001600160a01b0384163b1561140657604051630a85bd0160e11b81526001600160a01b0385169063150b7a0290611348903390899088908890600401611a99565b602060405180830381600087803b15801561136257600080fd5b505af1925050508015611392575060408051601f3d908101601f1916820190925261138f91810190611ad6565b60015b6113ec573d8080156113c0576040519150601f19603f3d011682016040523d82523d6000602084013e6113c5565b606091505b5080516113e45760405162461bcd60e51b81526004016104da90611a09565b805181602001fd5b6001600160e01b031916630a85bd0160e11b149050610f60565b506001949350505050565b82805461141d906118bc565b90600052602060002090601f01602090048101928261143f5760008555611485565b82601f1061145857805160ff1916838001178555611485565b82800160010185558215611485579182015b8281111561148557825182559160200191906001019061146a565b50611491929150611495565b5090565b5b808211156114915760008155600101611496565b6001600160e01b03198116811461094357600080fd5b6000602082840312156114d257600080fd5b8135610deb816114aa565b60005b838110156114f85781810151838201526020016114e0565b83811115610d785750506000910152565b600081518084526115218160208601602086016114dd565b601f01601f19169290920160200192915050565b602081526000610deb6020830184611509565b60006020828403121561155a57600080fd5b5035919050565b80356001600160a01b038116811461157857600080fd5b919050565b6000806040838503121561159057600080fd5b61159983611561565b946020939093013593505050565b6000806000606084860312156115bc57600080fd5b6115c584611561565b92506115d360208501611561565b9150604084013590509250925092565b6000602082840312156115f557600080fd5b610deb82611561565b602080825282516001600160a01b0316828201528201516060604083015260009061162c6080840182611509565b90506040840151601f198483030160608501526116498282611509565b95945050505050565b6000806040838503121561166557600080fd5b50508035926020909101359150565b6020808252825182820181905260009190848201906040850190845b818110156116b55783516001600160a01b031683529284019291840191600101611690565b50909695505050505050565b634e487b7160e01b600052604160045260246000fd5b600067ffffffffffffffff808411156116f2576116f26116c1565b604051601f8501601f19908116603f0116810190828211818310171561171a5761171a6116c1565b8160405280935085815286868601111561173357600080fd5b858560208301376000602087830101525050509392505050565b600082601f83011261175e57600080fd5b610deb838335602085016116d7565b6000806040838503121561178057600080fd5b823567ffffffffffffffff8082111561179857600080fd5b6117a48683870161174d565b935060208501359150808211156117ba57600080fd5b506117c78582860161174d565b9150509250929050565b600080604083850312156117e457600080fd5b6117ed83611561565b91506020830135801515811461180257600080fd5b809150509250929050565b6000806000806080858703121561182357600080fd5b61182c85611561565b935061183a60208601611561565b925060408501359150606085013567ffffffffffffffff81111561185d57600080fd5b8501601f8101871361186e57600080fd5b61187d878235602084016116d7565b91505092959194509250565b6000806040838503121561189c57600080fd5b6118a583611561565b91506118b360208401611561565b90509250929050565b600181811c908216806118d057607f821691505b602082108114156118f157634e487b7160e01b600052602260045260246000fd5b50919050565b6020808252602e908201527f4552433732313a2063616c6c6572206973206e6f7420746f6b656e206f776e6560408201526d1c881b9bdc88185c1c1c9bdd995960921b606082015260800190565b634e487b7160e01b600052601160045260246000fd5b60008282101561196d5761196d611945565b500390565b600081600019048311821515161561198c5761198c611945565b500290565b634e487b7160e01b600052603260045260246000fd5b60006000198214156119bb576119bb611945565b5060010190565b600083516119d48184602088016114dd565b8351908301906119e88183602088016114dd565b01949350505050565b60008219821115611a0457611a04611945565b500190565b60208082526032908201527f4552433732313a207472616e7366657220746f206e6f6e20455243373231526560408201527131b2b4bb32b91034b6b83632b6b2b73a32b960711b606082015260800190565b634e487b7160e01b600052601260045260246000fd5b600082611a8057611a80611a5b565b500490565b600082611a9457611a94611a5b565b500690565b6001600160a01b0385811682528416602082015260408101839052608060608201819052600090611acc90830184611509565b9695505050505050565b600060208284031215611ae857600080fd5b8151610deb816114aa56fea2646970667358221220ef03ca6c6f5ca38503205e3be3b5b5b0eaac1408a378d71da830734f8fea4bfc64736f6c63430008090033",
  "devdoc": {
    "kind": "dev",
    "methods": {
      "approve(address,uint256)": {
        "details": "See {IERC721-approve}."
      },
      "balanceOf(address)": {
        "details": "See {IERC721-balanceOf}."
      },
      "getApproved(uint256)": {
        "details": "See {IERC721-getApproved}."
      },
      "isApprovedForAll(address,address)": {
        "details": "See {IERC721-isApprovedForAll}."
      },
      "name()": {
        "details": "See {IERC721Metadata-name}."
      },
      "ownerOf(uint256)": {
        "details": "See {IERC721-ownerOf}."
      },
      "paused()": {
        "details": "Returns true if the contract is paused, and false otherwise."
      },
      "safeTransferFrom(address,address,uint256)": {
        "details": "See {IERC721-safeTransferFrom}."
      },
      "safeTransferFrom(address,address,uint256,bytes)": {
        "details": "See {IERC721-safeTransferFrom}."
      },
      "setApprovalForAll(address,bool)": {
        "details": "See {IERC721-setApprovalForAll}."
      },
      "supportsInterface(bytes4)": {
        "details": "See {IERC165-supportsInterface}."
      },
      "symbol()": {
        "details": "See {IERC721Metadata-symbol}."
      },
      "tokenURI(uint256)": {
        "details": "See {IERC721Metadata-tokenURI}."
      },
      "transferFrom(address,address,uint256)": {
        "details": "See {IERC721-transferFrom}."
      }
    },
    "version": 1
  },
  "userdoc": {
    "kind": "user",
    "methods": {},
    "version": 1
  },
  "storageLayout": {
    "storage": [
      {
        "astId": 138,
        "contract": "contracts/MedicsBook.sol:MedicsBook",
        "label": "_initialized",
        "offset": 0,
        "slot": "0",
        "type": "t_uint8"
      },
      {
        "astId": 141,
        "contract": "contracts/MedicsBook.sol:MedicsBook",
        "label": "_initializing",
        "offset": 1,
        "slot": "0",
        "type": "t_bool"
      },
      {
        "astId": 1746,
        "contract": "contracts/MedicsBook.sol:MedicsBook",
        "label": "__gap",
        "offset": 0,
        "slot": "1",
        "type": "t_array(t_uint256)50_storage"
      },
      {
        "astId": 2016,
        "contract": "contracts/MedicsBook.sol:MedicsBook",
        "label": "__gap",
        "offset": 0,
        "slot": "51",
        "type": "t_array(t_uint256)50_storage"
      },
      {
        "astId": 438,
        "contract": "contracts/MedicsBook.sol:MedicsBook",
        "label": "_name",
        "offset": 0,
        "slot": "101",
        "type": "t_string_storage"
      },
      {
        "astId": 440,
        "contract": "contracts/MedicsBook.sol:MedicsBook",
        "label": "_symbol",
        "offset": 0,
        "slot": "102",
        "type": "t_string_storage"
      },
      {
        "astId": 444,
        "contract": "contracts/MedicsBook.sol:MedicsBook",
        "label": "_owners",
        "offset": 0,
        "slot": "103",
        "type": "t_mapping(t_uint256,t_address)"
      },
      {
        "astId": 448,
        "contract": "contracts/MedicsBook.sol:MedicsBook",
        "label": "_balances",
        "offset": 0,
        "slot": "104",
        "type": "t_mapping(t_address,t_uint256)"
      },
      {
        "astId": 452,
        "contract": "contracts/MedicsBook.sol:MedicsBook",
        "label": "_tokenApprovals",
        "offset": 0,
        "slot": "105",
        "type": "t_mapping(t_uint256,t_address)"
      },
      {
        "astId": 458,
        "contract": "contracts/MedicsBook.sol:MedicsBook",
        "label": "_operatorApprovals",
        "offset": 0,
        "slot": "106",
        "type": "t_mapping(t_address,t_mapping(t_address,t_bool))"
      },
      {
        "astId": 1300,
        "contract": "contracts/MedicsBook.sol:MedicsBook",
        "label": "__gap",
        "offset": 0,
        "slot": "107",
        "type": "t_array(t_uint256)44_storage"
      },
      {
        "astId": 303,
        "contract": "contracts/MedicsBook.sol:MedicsBook",
        "label": "_paused",
        "offset": 0,
        "slot": "151",
        "type": "t_bool"
      },
      {
        "astId": 408,
        "contract": "contracts/MedicsBook.sol:MedicsBook",
        "label": "__gap",
        "offset": 0,
        "slot": "152",
        "type": "t_array(t_uint256)49_storage"
      },
      {
        "astId": 3249,
        "contract": "contracts/MedicsBook.sol:MedicsBook",
        "label": "medics",
        "offset": 0,
        "slot": "201",
        "type": "t_mapping(t_address,t_struct(Medic)3238_storage)"
      },
      {
        "astId": 3252,
        "contract": "contracts/MedicsBook.sol:MedicsBook",
        "label": "medicsList",
        "offset": 0,
        "slot": "202",
        "type": "t_array(t_address)dyn_storage"
      }
    ],
    "types": {
      "t_address": {
        "encoding": "inplace",
        "label": "address",
        "numberOfBytes": "20"
      },
      "t_array(t_address)dyn_storage": {
        "base": "t_address",
        "encoding": "dynamic_array",
        "label": "address[]",
        "numberOfBytes": "32"
      },
      "t_array(t_uint256)44_storage": {
        "base": "t_uint256",
        "encoding": "inplace",
        "label": "uint256[44]",
        "numberOfBytes": "1408"
      },
      "t_array(t_uint256)49_storage": {
        "base": "t_uint256",
        "encoding": "inplace",
        "label": "uint256[49]",
        "numberOfBytes": "1568"
      },
      "t_array(t_uint256)50_storage": {
        "base": "t_uint256",
        "encoding": "inplace",
        "label": "uint256[50]",
        "numberOfBytes": "1600"
      },
      "t_bool": {
        "encoding": "inplace",
        "label": "bool",
        "numberOfBytes": "1"
      },
      "t_mapping(t_address,t_bool)": {
        "encoding": "mapping",
        "key": "t_address",
        "label": "mapping(address => bool)",
        "numberOfBytes": "32",
        "value": "t_bool"
      },
      "t_mapping(t_address,t_mapping(t_address,t_bool))": {
        "encoding": "mapping",
        "key": "t_address",
        "label": "mapping(address => mapping(address => bool))",
        "numberOfBytes": "32",
        "value": "t_mapping(t_address,t_bool)"
      },
      "t_mapping(t_address,t_struct(Medic)3238_storage)": {
        "encoding": "mapping",
        "key": "t_address",
        "label": "mapping(address => struct Medic)",
        "numberOfBytes": "32",
        "value": "t_struct(Medic)3238_storage"
      },
      "t_mapping(t_address,t_uint256)": {
        "encoding": "mapping",
        "key": "t_address",
        "label": "mapping(address => uint256)",
        "numberOfBytes": "32",
        "value": "t_uint256"
      },
      "t_mapping(t_uint256,t_address)": {
        "encoding": "mapping",
        "key": "t_uint256",
        "label": "mapping(uint256 => address)",
        "numberOfBytes": "32",
        "value": "t_address"
      },
      "t_string_storage": {
        "encoding": "bytes",
        "label": "string",
        "numberOfBytes": "32"
      },
      "t_struct(Medic)3238_storage": {
        "encoding": "inplace",
        "label": "struct Medic",
        "members": [
          {
            "astId": 3233,
            "contract": "contracts/MedicsBook.sol:MedicsBook",
            "label": "addr",
            "offset": 0,
            "slot": "0",
            "type": "t_address"
          },
          {
            "astId": 3235,
            "contract": "contracts/MedicsBook.sol:MedicsBook",
            "label": "name",
            "offset": 0,
            "slot": "1",
            "type": "t_string_storage"
          },
          {
            "astId": 3237,
            "contract": "contracts/MedicsBook.sol:MedicsBook",
            "label": "url",
            "offset": 0,
            "slot": "2",
            "type": "t_string_storage"
          }
        ],
        "numberOfBytes": "96"
      },
      "t_uint256": {
        "encoding": "inplace",
        "label": "uint256",
        "numberOfBytes": "32"
      },
      "t_uint8": {
        "encoding": "inplace",
        "label": "uint8",
        "numberOfBytes": "1"
      }
    }
  }
}